:400000000010002011000000650C0000650C000080B500AF00F02AFE80B584B000AF021CFB1D1A70224A3B1C0B3312781A70214A3B1C0A3312781A701F4B1B68013BFB601D
:400040001AE01E4B1868391C0B31FA68131C5B009B18C31801331B780B70184B1868391C0A31FA68131C5B009B18C31802331B780B70FB68013BFB60FB68002B0ADB0F4B59
:400080001968FA68131C5B009B185B5CFA1D12789A42D6D90A4B3A1C0B3212781A60094B3A1C0A3212781A60BD4604B080BDC046CCF1FF0FCDF1FF0FF4690000CC0000208D
:4000C0001CFF0B4020FF0B4080B500AF274B274A12688021C9020A431A603020FFF79CFF234B244A1278D2B21A60052002F058F9214B35221A60214B11221A60204B20220C
:400100001A60204B10221A601F4B30221A601F4B30221A601E4B30221A601E4B21221A601D4B22221A601D4B802212061A601C4B802212061A600D4B8022D2021A60194B5E
:40014000194A1A60194B1A4A1A601A4B164A1A60194B1A4A1A601A4B1A4A1A601A4B1B4A1A601B4B1B4A1A60BD4680BD00010B4028FF0B40FDF1FF0F2CFF0B400802024057
:400180001402024018020240200202402402024028020240340202403C02024008010B4004010B400000024001000080400002402F0000C0800002400400024022000080D9
:4001C00044000240EF00008008000240F301008048000240DF0100C080B582B000AF72B65C4B01221A70FB1D00221A7023E0FB1D1A78131C5B009B185B00574A9B183B6098
:400200003B681A78597809020A43997809040A43DB781B0613431A1C3B6819795B791B020B439BB2101C191C00F0A0FDFB1DFA1D127801321A70FB1D1B78012BD7D9474AB8
:40024000474B101C191C00F0A1FD464BA02212011A80454B01221A70444BCC2292011A60434BC02292041A60424B03221A60424BEE2212021A60414B99221A60404B9C2255
:400280001A60404B404A1A60404B10221A60404B41221A603F4BC02252031A603E4B01221A603E4B01221A603D4B06221A603D4BD82212011A603C4B06221A603B4B3122D4
:4002C0001A603B4B04221A603A4B3B4A1A603B4B802212061A603A4B902212041A60394B992212041A60384B802252051A60374B992212041A60364B992212041A60354B7B
:40030000C02292051A60344B10221A60334B10221A60334B10221A60324B01221A60324B02221A60314B314A1278D2B202210A43D2B21A702D4B2D4A1278D2B206210A4322
:40034000D2B21A70FFF7C0FE00F060FDBD4602B080BDC0461C700F40B8670000C4670000EC67000000600F4002600F400000014004000140080001400C0001401000014031
:400380000000044008000440800D40001800044000010440080104401801044000020440080204400803044000040440080404401804044000500F400400990004500F40DB
:4003C00008500F4010500F4018500F4020500F4030500F4038500F402001054060010540A00105402000004000800F4000700F4010B5064C2378002B07D10548002802D0AF
:40040000044800E000BF0121217010BD5801002000000000B467000008B5084B002B03D00748084900E000BF07480168002903D0064A002A00D0904708BDC04600000000D0
:40044000B46700005C010020C80000200000000080B500AF044B1B785A425341DBB21A1C014B1A70BD4680BD7401002000000000F0B5474680B4E64CA54400AFE5483B18E8
:4004800001221A80E4497B1801221A8082229200BB1800221A80E14B81208000C0190360FA23DB00181C01F057FF62B6DC497B1800221A704DE0DA4ABB181B78984681238C
:4004C0009B00DB1918688421C90503F01DFD031C181C05F033FF051C0E1CD1483B181B78181C04F099F8031C181CCE4903F046FE031C181CCC4903F007FD031C181C05F0A8
:400500001DFF031C0C1CBD4ABB49081C111C1A1C231C02F031F8031C0C1C281C311C1A1C231C05F077F8031C0C1C181C211C05F059FF011CB64B86229200D219D318404602
:400540008200D150B6497B18B5483A18127801321A70B3497B181B787E2BACD900F044FAB24B181C01F036FC01F08EFC01F060FD002001F023FD002001F0F4FD00F0B2FE42
:40058000002001F0C9FA012001F0C6FA01F080F901F08EFB492001F00BFC01F08BFA00F03DFFC04600F066FF031C002BFAD1994ABB1864221A8001F07DFA00F02FFFC046DC
:4005C00000F058FF031C002BFAD1994B1B88053B9AB2852080003B181A80954B5B88053B9AB2842189007B181A8085229200BB1800201B5E002B04DA852189007B1800223E
:400600001A8084229200BB1800201B5E002B04DA842189007B1800221A8085239B00FA187C483B180021525E00201B5E9A4206DD78497B18852080003A1812881A808421BD
:4006400089007A1874483B180021525E00201B5E9A4206DD70497B18842080003A1812881A80852189007B1800201A5E131C1B049A1A68497B1800201B5E101C191C03F0A4
:400680007BFB031C1A1C6B497B181A8080229200BB18012252421A80842080003B1800215A5E131C1B049A1A5B483B1800215B5E101C191C03F060FB031C1A1C82208000EE
:4006C0003B181A805B497B18198880229200BB181A88822080003B181B88081C111C1A1C00F0D2F9432001F0F9FA852189007B1800229B5E1B129BB21BB2181C01F0EEFABA
:40070000852080003B181B881A1CFF231340181C01F0E4FA052001F01FFE47497B1800229B5E181C03F024FF031C181C05F006FE031C0C1C181C211C314A324B04F06AFFDC
:40074000031C0C1C1D1C261C832080003B1800215B5E181C03F00CFF031C181C05F0EEFD031C0C1C181C211C274A284B04F052FF031C0C1C281C311C1A1C231C03F0A0FF42
:40078000031C0C1C1D1C261C85229200BB1800201B5E181C03F0ECFE031C181C05F0CEFD031C0C1C181C211C154A164B04F032FF031C0C1C281C311C1A1C231C03F080FF52
:4007C000031C0C1C181C211C03F07EFB031CFE214900C9190B6084229200BB1800201B5E012B2BDC002001F0E9FB002001F0BAFC3AE0C046C046C046000000000000004002
:400800009A9999999999C93F333333333333E33FE8FDFFFF120200000E0200000000DC431702000000001041000040415104000094010020020200000A020000842189006C
:400840007B1800229B5E1B119BB29BB2181C01F0B5FB842080003B1800215B5E1B119BB29BB2181C01F07EFC5B4B1B78002B61D0FE225200D21913680133181C05F02CFD86
:40088000031C0C1C181C211C01F0F2FD031C0C1C181C211C4F4B4E4A04F0BCFE031C0C1C181C211C03F010FB031CFE204000C0190360FE214900C9190B68181C2D2103F067
:4008C0009FFA0B1C3233FE225200D2191360434B86208000C019C318FE214900C9190A689200D3583E48191C03F00EFB031C181C03F0D0FA031C9BB2181C01F04FFBFE2260
:400900005200D21913681A1C0C32344B86208000C019C3189200D3583148191C03F0F4FA031C181C03F0B6FA031C9BB2181C01F009FC2DE0FE214900C919086803F06CFE36
:40094000031C2748191C03F0DFFA031C181C03F0A1FA031C9BB2181C01F020FBFE225200D219106803F058FE031C1D48191C03F0CBFA031C181C8021C90503F0C5FA031C39
:40098000181C03F087FA031C9BB2181C01F0DAFB852080003B1800215B5E0E2B05DC002001F00CFB002001F0DDFB83229200BB18852080003A1812881A800A497B1883207E
:4009C00080003A1812881A80F5E5C046C046C046000000000000104074010020E8FDFFFF005043480A02000080B500AF00F094FB00F0F4FA00F054FABD4680BD80B582B030
:400A000000AF0A1CFB1D011C19703B1D1A80FB1D1B78022B09D0032B0DD0012B11D13B1D1B88181C00F098FB0CE03B1D1B88181C00F0F4FA06E03B1D1B88181C00F050FA6D
:400A400000E0C046BD4602B080BDC04680B582B000AFBB1D18803B1D1980BB1C1A80BB1D1B880120191CFFF7C9FF3B1D1B880220191CFFF7C3FFBB1C1B880320191CFFF74F
:400A8000BDFFBD4602B080BD80B588B000AFBB1D18803B1D1980BB1C1A803B1D1B88BA1C12885343181C644903F066F9031C3B61BB1C1A883B69D31AFB60BB1D1A885F4B22
:400AC0009A4212D83B69FB61BB1D1B883A695A43131C5B009B185B00181C594903F04CF9031CBB6100237B6167E0BB1D1A88554B9A4210D8BB1D1B88514AD31A3A69534334
:400B0000181C514903F038F9031CFB613B69BB6100237B6151E0BB1D1A884C4B9A4210D80023FB613B69BB61BB1D1B88484A9B183A695343181C444903F01EF9031C7B6185
:400B40003BE0BB1D1A88434B9A4210D80023FB61BB1D1B88404AD31A3A695343181C3A4903F00AF9031CBB613B697B6125E0BB1D1A883A4B9A4210D8BB1D1B88384A9B1804
:400B80003A695343181C304903F0F6F8031CFB610023BB613B697B610FE03B69FB610023BB61BB1D1B88244AD31A3A695343181C254903F0E1F8031C7B61FA69FB68D318DD
:400BC000FB61BA69FB68D318BB617A69FB68D3187B61FA69184B9A4202DD174BFB6104E0FB69002B01DA0023FB61BA69124B9A4202DD114BBB6104E0BB69002B01DA00230F
:400C0000BB617A690C4B9A4202DD0B4B7B6104E07B69002B01DA00237B61FB6999B2BB699AB27B699BB2081C111C1A1CFFF70EFFBD4608B080BDC046FFFF0000A92A0000FB
:400C40005555000054550000AA2A0000FE7F0000ABAAFFFFA9AA0000AAAA000053D500005655FFFF80B500AFFEE7C04680B586B000AF254B7B61254B3B61234B7B61234B0C
:400C80003B6132E03B691B68FB603B695B68BB603B699B683B6000237B600CE0FB681A68BB681A60BB680433BB60FB680433FB607B6804337B607A683B689A42EED13B69B1
:400CC000DB683B6000237B6008E0BB6800221A60BB680433BB607B6804337B607A683B689A42F2D13B6910333B617B695A1E9341DBB27A69013A7A61002BC3D105F02AFDCF
:400D0000FFF7B6FBFEE7C04601000000A86B000080B582B000AF00237B600FE07B68032B04D80E4B7A689200D35800E00C4B0D4A796889008B507B6801337B607B682F2B23
:400D4000ECD9FFF749FA084B00221A608023DB0501221A60BD4602B080BDC04600000000650C000000000020C000002080B582B000AF786039607A683B68101C00211A1C6E
:400D800005F00EFDBD4602B080BDC04680B586B000AF7860396000233B6100237B612EE07B699B007A68D3181B68BB603B1C0F33BA681A70BB68FF229343BB6017E03B69E5
:400DC0005B003A68D3181B781A1CBB68D3183A69520039688A1852781A703B6901333B613B1C0F333A1C0F321278013A1A703B1C0F331B78002BE2D17B6901337B617B69D3
:400E0000092BCDD9BD4606B080BDC04680B500AFBD4680BD80B500AF0F4B8222D2041A600D4B0D4A12681A600B4B0B4A12681A600A4B0C221A60012000F07EF8084B181C39
:400E400000F040F8064B181C00F04AF8054B31221A60BD4680BDC0460001054024010540FFFF00002801054090B583B000AFFC1D01F0BBF9031C2370084B084A126801213C
:400E80000A431A60FB1D1B78181C01F0B2F90120182100F033F8BD4603B090BD0000054080B500AF064B1B78002B04D1FFF7B2FF034B01221A70FFF7D7FFBD4680BDC046B7
:400EC0007501002080B582B000AF7860034B7A681204120C1A60BD4602B080BD1401054080B582B000AF7860034B7A681204120C1A60BD4602B080BD0C01054090B585B0BA
:400F000000AF786039603C1C0F3401F06EF9031C2370084B3A687968081C9040021C1A603B1C0F331B78181C01F063F9BD4605B090BDC0460800054080B582B000AF786097
:400F4000024B7A681A60BD4602B080BD3801054080B500AF0F4B8222D2041A600D4B0D4A12681A600B4B0B4A12681A600A4B0C221A60012000F07EF8084B181C00F040F8B1
:400F8000064B181C00F04AF8054B31221A60BD4680BDC0464001054064010540FFFF00006801054090B583B000AFFC1D01F01DF9031C2370084B084A126802210A431A6039
:400FC000FB1D1B78181C01F014F90220182100F033F8BD4603B090BD0000054080B500AF064B1B78002B04D1FFF7B2FF034B01221A70FFF7D7FFBD4680BDC0467601002043
:4010000080B582B000AF7860034B7A681204120C1A60BD4602B080BD5401054080B582B000AF7860034B7A681204120C1A60BD4602B080BD4C01054090B585B000AF786007
:4010400039603C1C0F3401F0D0F8031C2370084B3A687968081C9040021C1A603B1C0F331B78181C01F0C5F8BD4605B090BDC0460800054080B582B000AF7860024B7A68EC
:401080001A60BD4602B080BD7801054080B500AF0F4B8222D2041A600D4B0D4A12681A600B4B0B4A12681A600A4B0C221A60012000F07EF8084B181C00F040F8064B181CDA
:4010C00000F04AF8054B31221A60BD4680BDC04680010540A4010540FFFF0000A801054090B583B000AFFC1D01F07FF8031C2370084B084A126804210A431A60FB1D1B78AF
:40110000181C01F076F80420182100F033F8BD4603B090BD0000054080B500AF064B1B78002B04D1FFF7B2FF034B01221A70FFF7D7FFBD4680BDC0467701002080B582B0E1
:4011400000AF7860034B7A681204120C1A60BD4602B080BD9401054080B582B000AF7860034B7A681204120C1A60BD4602B080BD8C01054090B585B000AF786039603C1CBC
:401180000F3401F032F8031C2370084B3A687968081C9040021C1A603B1C0F331B78181C01F027F8BD4605B090BDC0460800054080B582B000AF7860024B7A681A60BD465B
:4011C00002B080BDB801054080B582B000AF284B1B78013B9BB2181C002101F003F9254B1B78013B9BB2181C002101F025F900F04FF9214B1B68DAB2204B1A701F4B1B7886
:401200007B607B680F2293437B601D4B1B78DBB21A1C0F2313407A6813437B60164B7A681A60184B184A1A60184BC022D2001A60002000F077FA164B154A1168154A0A40C8
:401240001A60134B124A1268C021C9000A431A600F2001F061F8104B0F20191C00F0CCFF0F20032100F0EEFFBD4602B080BDC046D8000020D900002000FF0840AA01002031
:4012800062F1FF0F040008400028A0010800084010000140FFF0FFFFE91B000080B500AF01F092F801F0BAF80D4B0D4A1268802109060A431A600A4B094A126880210903B5
:4012C0000A431A60064B064A1268802149010A431A600F2001F00AF800F040FABD4680BD0400084080B500AF094B1B78002B04D1FFF76AFF064B01221A70FFF7CFFF054B46
:40130000044A12688021C9030A431A60BD4680BD780100200400084080B584B000AF021CFB1D1A70FB1DFA1D127801321A70FB1D1B78022B1BD03B1C0F33FA1D1278D20867
:401340001A70FB1D1A780723134001229A403B1C0E331A703B1C0F331B78084AD35C3A1C0E3212781340DBB2002BDBD000E0C046FB1D1B78181CBD4604B080BD88010020B8
:4013800080B584B000AF021CFB1D1A70114B1B68FB60FB68FF229343FB60FB1D1B780E4AD35CFA681343FB600A4BFA681A600B4B1B78013B9BB2181C002101F013F8084BDA
:4013C0001B78013B9BB2181C002101F035F8BD4604B080BD08000840086A0000D8000020D900002080B582B000AF021CFB1D1A70084B00221A70084BFA1D12781A70054B14
:4014000081221A70FB1D1B78181C00F027F9BD4602B080BD790100207A01002080B500AF124B00221A70124BFF221A70104B1B78DBB2181CFFF770FF031C1A1C0C4B1A702A
:401440000B4B1B78DBB2012B0DD8084B1B78DBB201221343DAB2054B1A70054B1B78DBB2181C00F0FBF8BD4680BDC046790100207A01002080B500AF044B1B78DAB201231B
:401480001340DBB2181CBD4680BDC0467901002080B582B000AFFB1D00221A7009E0FB1D1B78181C00F068F8FB1DFA1D127801321A70FB1D1B78012BF1D9BD4602B080BD3D
:4014C00090B587B000AF021CFB1D1A70FB1D1B78254AD35C7B61FB1D1B78244AD35C3A1C1332191C4900CB181370FB1D1B781F4AD25C3B1C123392001A701D4B7A6992003E
:40150000D3581B68FB603B1C12331B780F22111C99400B1CDA43FB681340FB603B1C12331B780422141C9C40231CFA681343FB60104B7A699200D3580E4A796989008A5894
:401540001268391C133109780720041C8C40211CC9430A401A60064B7A699200D358FA681A60BD4607B090BDF8690000046A00001C6A0000306A000090B587B000AF021CAB
:40158000FB1D1A70FB1D1B782F4AD35C7B61FB1D1B782E4AD25C3B1C133392001A70FB1D1B782A4AD35C3A1C1232191C4900CB181370274B7A699200D358254A7969890098
:4015C0008A581268391C133109780F20041C8C40211CC9430A401A601E4B7A699200D3581B68FB603B1C12331B780722111C99400B1CDA43FB681340FB603B1C12331B7884
:401600000622141C9C40231CFA681343FB60114B7A699200D358FA681A600F4B7A699200D3580D4A796989008A581268F91D09780648415C0120041C8C40211CC9430A4012
:401640001A60BD4607B090BDF8690000046A00001C6A0000306A0000446A000090B585B000AF021CFB1D1A703C1C0F3400F0BDFD031C2370FB1D1A783B1C0E3315498A5CE6
:401680001A70FB1D1B78181CFFF77AFEFB1D1B78181CFFF715FF104B1B68BB60BA680F4B1340BB60BB680E4A1343BB600A4BBA681A600C4B3A1C0E3211780B4A89008A5874
:4016C0001A603B1C0F331B78181C00F092FDBD4605B090BD186A000004000840FF1FDFFF00E020000C000840106A000080B582B000AF021CFB1D1A7000F030F8FB1D1A785C
:40170000064B1B6899B2064B5200D152FB1D1B78181CFFF731FFBD4602B080BD0C0008407C01002080B582B000AF7860094B094A1168094A0A401A607A68032313407B6081
:40174000044B044A11687A6852020A431A60BD4602B080BD04000840FFF9FFFF80B582B000AF154B1B683B603A68144B13403B603B68A022120213433B600F4B3A681A60BF
:401780000F4B1B683B600E4BFD2252001A60F0239B007B6002E07B68013B7B60094B1A680823134002D17B68002BF4D1044B3A681A60BD4602B080BD04000840FF1FDFFF69
:4017C000080008401000084080B584B000AF021CFB1D1A70FB1D1A783B1C0F3317498A5C1A70FB1D1A78FB1D1978154B4900C95A144B5200D152FB1D1B78134A0021D15415
:40180000FB1D1A78114B52000021D1523B1C0F331B783A1C0F3212780D49895C0D4AD154FB1D1A78FB1D1978054B4900C95A0A4B5200D152BD4604B080BDC046186A0000B3
:401840007C0100208C0100209001002094010020646A00009C010020AC01002080B582B000AF021CFB1D1A70FB1D1B78181CFFF7B9FDC046FFF7FEFD031C002BFAD1FB1DDB
:401880001B78181CFFF7A0FFBD4602B080BDC04680B582B000AFFB1D00221A7009E0FB1D1B78181CFFF7DAFFFB1DFA1D127801321A70FB1D1B78012BF1D9BD4602B080BD5A
:4018C00090B587B000AF021CFB1D1A70FB1D1A783B1C15336F498A5C1A703B1C153319783B1C12336C4A49008A5A1A80FB1D19783B1C1033694A49008A5A1A80FB1D1A78DC
:40190000674B5200D35A3C1C10343A1C10321288101C191C00F050F9031C2380FB1D1A785F4B5200391C10310988D152FB1D1A785C4B5200D35A3A1C103212889A4215D396
:40194000FB1D1B78584A0021D154FB1D1A78554B5200D25A3B1C1633391C103109888A1A1A803B1C153301221A700FE0FB1D1A784C4B5200D15A3B1C16333A1C103212883C
:401980008A1A1A803B1C153300221A703B1C15331B78002B1ED13B1C16331B88142B19D9FB1D1B78404AD35C042B0AD9FB1D1B78181CFFF709FFFB1D1B783B4A0021D15415
:4019C00049E0FB1D1B78384AD25C0132D1B2364AD15440E03A1C16323B1C123312881B889A4209D93B1C16331B88132B33D83B1C15331B78002B2ED1FB1D1A78294B52005B
:401A0000D35A1B02FB60FB1D1B78284AD35CFA681343FB603B1C10331B88FA68D318FB60FB1D1A781F4B5200D35AFA68D31AFB60FB1D1A78FB681B0A99B21A4B5200D15229
:401A4000FB1D1B78FA68D1B2184AD154FB1D1B78154A0021D1543A1C16323B1C123312881B889A420DD93B1C15331B78002B08D0FB1D1A780E4B5200391C16310988D152EC
:401A800005E0FB1D1A780A4B52000021D152BD4607B090BD186A00005C6A00007C010020AC0100208C010020B0010020900100209401002080B582B000AFFB1D00221A7035
:401AC00020E0BB1DFA1D1278D2081A70FB1D1A780723134001229A407B1D1A70BB1D1B780C4AD35C7A1D12781340DBB2002B04D0FB1D1B78181CFFF7E3FEFB1DFA1D127864
:401B000001321A70FB1D1B78012BDAD9BD4602B080BDC0468801002080B584B000AF021CFB1D1A70FB1D1A783B1C0F331F498A5C1A70FB1D1B781E4AD15C3B1C0E333A1C9C
:401B40000F3212788A181A703B1C0D333A1C0F321278D2081A703B1C0F331A780723134001229A403B1C0C331A703B1C0D331B783A1C0D3212780F49895C3A1C0C321278E9
:401B80000A43D1B20B4AD1543B1C0F333A1C0F32127801321A703A1C0F323B1C0E3312781B789A42D0D3BD4604B080BD686A00006C6A00008801002080B584B000AF0A1C16
:401BC000BB1D011C19803B1D1A80BB1D1A883B1D1B88D318FB60FB685B08FB60FB689BB2181CBD4604B080BD90B583B000AFFC1D00F0FBFA031C23701F4B01221A601F4B69
:401C00001B78DBB2181CFFF771FD1D4B1B78DBB2DBB25BB2002B08DA194B1B78DBB201229343DAB2164B1A701DE0144B1B78DBB2181CFFF771FB031C1A1C104B1A700F4B23
:401C40001B78DBB2012B06D80C4B1B78DBB2181CFFF704FD07E00A4B1B78DBB201229343DAB2074B1A70FB1D1B78181C00F0C1FABD4603B090BDC046140008407A01002051
:401C80007901002080B500AF00F03EF8BD4680BD80B500AF054B054A1268802109060A431A6000F017F8BD4680BDC0460000064080B500AF064B1B78002B04D1044B012207
:401CC0001A70FFF7DFFFFFF7E3FFBD4680BDC046A001002080B500AFBD4680BD80B582B000AF7860C046064B1A680F231340082BF9D0044B7A681A60BD4602B080BDC04698
:401D0000080206404002064080B500AF174B184A1A60184B00221A60174B01221A60174B174A1A60174B07221A60174B00221A60164B01221A60164B114A1A60154B0022B5
:401D40001A60154B00221A60144B00221A60144B00221A60134B00221A60134B00221A60124B00221A60BD4680BDC046000006400B00000240000640480006400003064014
:401D8000070000800403064010030640440006400002064004020640880E0640C80E0640480F0640080F0640C80F0640880F064080B582B000AF78607B68181CFFF78EFF64
:401DC0000D20FFF78BFF0A20FFF788FFBD4602B080BDC04680B582B000AF786000F04AF87B68181C00F008F8032000F011F800F037F8BD4602B080BD80B582B000AF786055
:401E0000024B7A681A64BD4602B080BD0000002090B585B000AF021CFB1D1A700623FB603C1C0B3400F0E1F9031C23700B4B0B4A1268C021101C8843011CFA1D1078FA6848
:401E4000041C9440221C0A431A603B1C0B331B78181C00F0CEF9BD4605B090BD00E400E080B500AF024B01221A60BD4680BDC04600E100E080B500AF024B01221A60BD46E7
:401E800080BDC04680E100E080B500AF064B1B78002B04D100F00AF8034B01221A7000F04FF8BD4680BDC046A801002090B583B000AF204B1B78DAB2FB1D3F218A431A7023
:401EC0001C4BFA1D127809210A43D2B21A701A4B194A1278D2B201210A43D2B21A70174B164A1278D2B201210A43D2B21A70642000F036F8642000F051F8012000F05EF8EF
:401F0000002000F06BF8BC1D00F06FF9031C23700A4B0A4A1278D2B210210A43D2B21A70BB1D1B78181C00F064F900F029F8BD4603B090BD73000F4092000F4093000F4083
:401F400080B500AF054B054A1278D2B2802149420A43D2B21A70BD4680BDC04673000F4080B582B000AF021CBB1D1A80034BBA1D12881A80BD4602B080BDC04604100F40E7
:401F800080B500AF01E000F049F800F037F8031C1A1C10231340F6D1BD4680BD80B582B000AF021CBB1D1A80034BBA1D12881A80BD4602B080BDC04684100F4080B582B0E9
:401FC00000AF021CBB1D1A80034BBA1D12881A80BD4602B080BDC04644100F4080B582B000AF021CFB1D1A70034BFA1D12781A70BD4602B080BDC04683000F4080B582B02E
:4020000000AF054AFB1D12781A70FB1D1B78181CBD4602B080BDC04663000F4080B500AF024B1B889BB2181CBD4680BDA4100F4080B500AF064B1B78002B04D100F00AF89B
:40204000034B01221A7000F04FF8BD4680BDC046A901002090B583B000AF204B1B78DAB2FB1D3F218A431A701C4BFA1D127809210A43D2B21A701A4B194A1278D2B2012119
:402080000A43D2B21A70174B164A1278D2B201210A43D2B21A70642000F036F8642000F051F8012000F05EF8002000F06BF8BC1D00F09BF8031C2370094B094A1278D2B27C
:4020C00010210A43D2B21A70BB1D1B78181C00F090F800F029F8BD4603B090BD70000F4090000F4091000F4080B500AF054B054A1278D2B2802149420A43D2B21A70BD4690
:4021000080BDC04670000F4080B582B000AF021CBB1D1A80034BBA1D12881A80BD4602B080BDC04600100F4080B500AF01E000F049F800F037F8031C1A1C10231340F6D190
:40214000BD4680BD80B582B000AF021CBB1D1A80034BBA1D12881A80BD4602B080BDC04680100F4080B582B000AF021CBB1D1A80034BBA1D12881A80BD4602B080BDC04652
:4021800040100F4080B582B000AF021CFB1D1A70034BFA1D12781A70BD4602B080BDC04680000F4080B582B000AF054AFB1D12781A70FB1D1B78181CBD4602B080BDC04602
:4021C00060000F4080B500AF024B1B889BB2181CBD4680BDA0100F400230800804D0C0460138FDD1C046C0467047EFF3108072B6704780F31088704780B584B000AF021CF5
:402200003960FB1D1A7080239B05FB60FB1D1B781F2B02D9002000F095F8FB1D1B7810339B00FA68D3181B68BB60FB1D1B7810339B00FA68D3183A681A60BB68181CBD4698
:4022400004B080BD90B587B000AF0A1CFB1D011C1970BB1D1A70BB1D1B78032B02D9002000F070F8FB1D1B781F2B02D9002000F069F8FB1D1A7803231340DB0006337B61BC
:402280003C1C1334FFF7B1FF031C2370FB1D1B789B08DBB29B0014495B181B68FB607B690322111C99400B1CDA43FB681340FB60BB1D1A787B69111C99400B1CFA6813436C
:4022C000FB60FB1D1B789B08DBB29B00064A9B18FA681A603B1C13331B78181CFFF789FFBD4607B090BDC04600E400E080B582B000AF021CFB1D1A70064BFA1D11781F2273
:402300000A400121081C9040021C1A60BD4602B080BDC04600E100E080B582B000AF021CFB1D1A70064BFA1D11781F220A400121081C9040021C1A60BD4602B080BDC046F4
:4023400080E100E080B582B000AF021CFB1D1A7001BEBD4602B080BD80B582B000AF786008E00C4B1B68181CFFF736FF7B680A4A9B187B607A6880231B029A42F1D8074B28
:402380001B687A685343181CFFF726FFBD4602B080BDC046E80000200080FFFFE000002080B582B000AF021CBB1D1A80BB1D1B88044A12785343181CFFF70EFFBD4602B0DA
:4023C00080BDC046E400002080B500AF044B044A1268802109060A431A60BD4680BDC0464000024080B584B000AF0A1CBB1D011C19807B1D1A70084B1B681B0C1B04FB60F7
:40240000BB1D1A88FB681343BB60034BBA681A60BD4604B080BDC0464000024080B500AF044B044A1268802109060A431A60BD4680BDC0460000024080B584B000AF0A1CB0
:40244000BB1D011C19807B1D1A70084B1B681B0C1B04FB60BB1D1A88FB681343BB60034BBA681A60BD4604B080BDC04600000240F0B5474680B48AB0041C0D1C00F040FAAE
:40248000394A0023061CD0560F1C9046431C0DD0201C291C01F008FB002807D0201C291C2C4B2B4A01F0E2FC002805D0301C391C0AB004BC9046F0BD002647462B490896E1
:4024C0003E7801910294039504940595002E29D12148224906900791201C291C1D4B1C4A01F0AAFC00280ED002230093022E23D0684601F011FB00281ED0089F002F20D1BB
:40250000069E079FD2E701240094022E0FD0684601F002FB00280AD0154801F001FB06900791EAE70E4A0F4B06920793D4E704F00BF921250560EFE704F006F9222101603A
:40254000DBE704F001F9089E0660D9E7C046C0460000000000000000000000E0FFFFEFC7000000000000F0FFEC000020706A0000746A0000C046C046F0B546464F46C0B446
:402580008DB0141C1D1C061C0F1C00F0C5FBC04A002300900191D0569046431C05D0201C291C01F081FA002806D1009801990DB00CBC90469946F0BD301C391C01F074FAF4
:4025C000814600282ED1201C291CA64BA44A01F033FC0028E9D00496059746460027AD4AF05701214B46069407959F4C9F4D029103920A9308940995421C0ED002280CD064
:4026000002A801F089FA002800D1E0E00A99002903D004F099F80A9A0260089B099C00930194C2E7301C391C8E4B8D4A01F004FC002831D0201C291C8A4B894A01F0FCFB04
:40264000002864D00496059706940795854E844D44460895099600268E4BA75701220020029203930A90002F08D07F487F4908900991089D099E0095019696E702A801F0CC
:402680004BFA002800D1A7E00A9A002AF1D004F05BF80A9B0360ECE70098019901F0FCF98146002864D0009801996E4B6C4A01F0C3FB002800D178E7301C391C01F0ECF94A
:4026C000002800D171E7201C291C01F0E5F9002800D16AE76F4806940795624D604C049605970894099504230021029303900A9140460023C556022D78D002A801F00CFA50
:40270000002873D00A99002900D186E781E7201C291C01F0C1F9002800D146E7201C291C504B4F4A01F08EFB002800D13DE706940795454657492C780120002202900391B0
:402740000A9204960597002C4BD0494E494F08960997022C35D103F0F7FF212707600A98002800D159E703F0EFFF0A99016054E7301C391C01F090F9002894D0201C291CE4
:4027800001F08AF900288ED00098019901F08CF9002830D10496059747463E4B3E780122029203930A9006940795002E19D02D492B48021C0B1C02F033FB08900991022E68
:4027C000C9D002A801F0A8F90028C8D1C3E703F0BBFF2125056019E703F0B6FF2121016052E7204C1E4B08930994EAE703F0ACFF2224046086E70322264B02924146002257
:4028000003938B5648460A900496059706940795002B41D11849194A301C08910992114B0F4A391C01F00EFB002800D160E7144A144B201C291C02F0EDFE071C0E1C01F06F
:4028400077F93A1C331C01F0F7FA002800D04FE70D4A0E4B089209934AE7C046C046C0460000000000000000000000000000F03F000000000000F0FF000000E0FFFFEF47D8
:40288000000000000000E03F000000E0FFFFEFC7EC000020786A000012491148124A134B08900991301C391C01F0CCFA002800D11EE70F4A0F4B291C201C02F0ABFE061C90
:4028C0000D1C01F035F9321C2B1C01F0B5FA002800D00DE7084C094D0894099508E7C046000000000000F07F0000000000000000000000000000E03F000000000000F0FF19
:40290000F0B54E4657464546E0B4C14E88B0021C0B1C041CB34258DC5D0069080C4300D1EDE0002B00DAB2E1101C191C994B984A02F070FE021CB74836240B1C67428142E9
:4029400047DC0B15B44E0903B4480C0B9D19A046031C8026EF1943447503B1491D40694028150C43C719211C101C8B4A8B4B03F0C3F8424602321303B946061C0F1C1D0B17
:40298000022D30DC864A874B01F056FA002800D1BCE04E46002E00D182E1484603F062FC814A824B041C0D1C02F034FE804A814B061C0F1C201C291C02F02CFE021C0B1CC5
:4029C000301C391C01F07CFE07E0924800278142B7DD101C191C01F073FE08B01CBC90469946A246F0BD744A744B01F069FE021C0B1C301C391C02F013FA02900391484681
:402A000003F030FC0490059102980399021C0B1C02F000FE021C0B1C0090019102F0FAFD674A684B7F4C0D1CA246041C02F0F2FD654A664B01F044FE221C2B1C02F0EAFD60
:402A4000634A644B01F03CFE221C2B1C02F0E2FD614A624B01F034FE009A019B02F0DAFD5F4A604B00900191201C291C02F0D2FD5D4A5E4B01F024FE221C2B1C02F0CAFDA6
:402A80005B4A5C4B01F01CFE221C2B1C02F0C2FD021C0B1C0098019901F012FE0D1C6249C244041C40460A1A53461A43002A54DD514A524B301C391C02F0ACFD321C3B1C03
:402AC00002F0A8FD009001914846002800D0ADE0221C2B1C0098019901F0F2FD029A039B02F098FD021C0B1C0098019903F004F8021C0B1C301C391C02F0FEFF6DE7284AB1
:402B0000284B3F483F4902F08BF966E7321C3B1C301C391C02F07EFD3B4A3C4B041C0D1C301C391C02F076FD021C0B1C3248334902F0E2FF021C0B1C201C291C02F06AFD15
:402B40004A46041C0D1C002A00D0ACE0301C391C221C2B1C02F0D0FF3FE74946002900D1C3E0114A114B0498059902F053FD221C009001912B1C301C391C02F0BDFF029AF8
:402B8000039B02F047FD041C0D1C0498059997E00000000000005043000000000000F03F00000000000000000000E0FE422EE63F763C7935EF39EA3D000000000000004023
:402BC00044523EDF12F1C23FDE03CB966446C73F599322942449D23F935555555555E53F9FC678D0099AC33FAF788E1DC571CC3F04FA97999999D93F000000000000E03FB0
:402C000000000000000050C3555555555555D53FFFFF0F00FFFFEF7F01FCFFFF645F09000000F03F86EBF9FF51B80600354B344A0498059902F0EEFC221C06900791009870
:402C400001992B1C01F03CFD029A039B02F0E2FC2D4A2E4B041C0D1C0498059902F0DAFC021C0B1C201C291C01F02AFD021C0B1C0098019902F040FF321C3B1C02F03CFFAC
:402C8000021C0B1C0698079902F036FFA5E6101C191C02F031FF1E4A1E4B02F0C1F89CE61B481C4999E6484603F0DCFA154B144A0290039102F0AEFC0090019102980399E8
:402CC000114A124B02F0A6FC021C0B1C201C291C02F012FF321C3B1C02F00EFF021C0B1C0098019902F008FF77E6221C2B1C301C391C02F001FF029A039B02F08BFCF7E6A6
:402D00000000E0FE422EE63F763C7935EF39EA3D0000000000000000F0B55F464D4644465646F0B41F1C7B0091B05D08161C80460290281C89460091341CBB46304337D075
:402D400000996B484A0053089A4683422ADC26D0674A954226DC00D183E0009800230493002800DA81E0002C33D1614CA54200D197E0604B9D426CD08020C1058B4501D174
:402D800000F0B5FB5C4A934523D1009C002C20DB4046494600F064FD061C0F1C0AE002990029D5D0554E029D371C57442F430AD1504F0026301C391C11B03CBC90469946E7
:402DC000A246AB46F0BD4E4800F0AAFE061C0F1CF0E74046494600F05BFE029B84460C1C002B15D14248824505D05146002902D0404A92450CD15E466746002E01DA00F0BD
:402E0000DEFB0099002900DA65E33E1C271CD1E7009B049AD80F0138009000990A4355D0384B9D427ADD384B9D4201DC00F0D1FB364DAA4501DC00F071FC5B46002B3FDD44
:402E40002A492948021C0B1C02F0E4FB061C0F1CB0E75C46002C01DA00F0C8FB46464F46A8E7002C00D178E79CE729498D422ADC264A954200DC76E726482B15834201DC72
:402E800000F028FC244A211CD31AD940081C9840A04200D067E7012319400220411A049161E71648029D031C53442B4300D17FE7164A924500DC79E35B46002B00DB79E7AC
:402EC0000026002776E7022204924CE74046494642464B4602F010FE021C0B1C01F0A0FF061C0F1C66E7C0469C7500883CE4377E0000F07F0000F03F0000E03F000010C09D
:402F0000746A00000000E0410000F043FFFFEF3FFFFF3F431304000033040000DC4D0023AA4509DCC14BC04A6046211C02F072FB352284468A4653425546D6492C156018F4
:402F4000C218D5492B03D54D1C0B934625438C4200DC48E3D248844201DC00F0D9FBD14B00240122A0469344ED18002462462B1C0A920B93E200CC4B91464B4419685A6837
:402F800008910992089A099B0A980B9902F0B4FD089A099B0C900D910A980B9901F090FB021C0B1CA248A34901F03AFF0E900F910E9A0F9B0C980D9902F02CFB002206907C
:402FC00007910B1C8020029203939B4A9B4B840580236D102543190368184546431902980399141C1D1C02F015FB021C0B1C0C980D9902F081FD089A099B0C900D91201C8D
:40300000291C02F079FD021C0B1C0A980B9902F073FD021C0B1C0298039902F0FBFA021C0B1C0C980D9902F067FD0E9A0F9B02F0F1FA0A900B9106980799021C0B1C02F0D5
:40304000E9FA041C0D1C221C2B1C02F0E3FA7C4A7C4B08900991201C291C02F0DBFA7A4A7A4B01F02DFB221C2B1C02F0D3FA784A784B01F025FB221C2B1C02F0CBFA764A51
:40308000764B01F01DFB221C2B1C02F0C3FA744A744B01F015FB221C2B1C02F0BBFA724A724B01F00DFB021C0B1C0898099902F0B1FA069A079B041C0D1C0298039901F020
:4030C000FFFA0A9A0B9B02F0A5FA221C2B1C01F0F7FA0890099102980399021C0B1C02F099FA634A634B0C900D9101F0E9FA089A099B01F0E5FA00240D1C221C0298039923
:403100002B1C02F087FA221C2B1C029003910A980B9902F07FFA564A564B0A900B91201C291C02F0E9FC0C9A0D9B02F0E5FC021C0B1C0898099902F0DFFC069A079B02F001
:4031400069FA021C0B1C0A980B9901F0B9FA06900791069A079B0298039901F0B1FA464A464B0024201C0D1C02F054FA444A454B0A900B91201C291C02F04CFA029A039B4A
:4031800008900991201C291C02F0B6FC021C0B1C0698079902F0B0FC3B4A3C4B02F03AFA021C0B1C0898099901F08AFA3F4A4A445368126801F084FA08900991584603F0EB
:4031C00051F8089A099B0D1C3949041C494408684968069007910A980B9901F071FA069A079B01F06DFA221C2B1C01F069FA00220B1C02920393101C2B1C221C02F07CFCF6
:40320000069A079B02F078FC0A9A0B9B02F074FC021C0B1C0898099902F06EFC0690079148E0C046C046C0460000000000004043000000000000F03F00000000000000003D
:40324000EF4E454A287ECA3F65DBC9934A86CD3F01411DA96074D13F4D268F515555D53FFFAB6FDBB66DDB3F033333333333E33F0000000000000840000000E009C7EE3FE4
:40328000F5015B14E02F3EBEFD033ADC09C7EE3FFFFF0F0001FCFFFF8E9803000000F03F79B60B000000F0FFA06A0000906A0000806A0000049900980139014300D070E140
:4032C000DE4BDD4A049205930024221C3B1C301C391C02F011FC029A039B02F09BF9069A079B00900191301C391C02F093F9021C0B1C0098019901F0E3F9029A039B0090A6
:403300000191201C391C02F085F9061C0F1C321C3B1C0098019901F0D3F9E34B0D1C041C021CAB46994200DCEBE0E0480B181A4300D065E1C24AC34B0098019901F0C0F95D
:40334000321C029003913B1C201C291C02F0D4FB021C0B1C0298039900F088FD002800D04EE16A0051088A46D148824500DDE3E00023994698460024B34AB44B201C291C95
:4033800002F048F9321C029003913B1C201C291C02F0B2FB021C0B1C0098019902F0ACFBAB4AAC4B02F036F9AB4AAC4B061C0F1C201C291C02F02EF9021C0B1C301C391C19
:4033C00001F07EF9041C0D1C221C2B1C0298039901F076F9029A039B061C0F1C02F08CFB021C0B1C201C291C02F086FB321C009001913B1C301C391C02F00CF9984A994BA3
:40340000041C0D1C02F006F9974A984B02F074FB221C2B1C02F0FEF8954A964B01F050F9221C2B1C02F0F6F8934A944B02F064FB221C2B1C02F0EEF8914A924B01F040F915
:40344000221C2B1C02F0E6F8021C0B1C301C391C02F052FB041C0D1C221C2B1C301C391C02F0D8F8884A894B02900391201C291C02F042FB021C0B1C0298039901F0D0FCED
:40348000009A019B041C0D1C301C391C02F0C2F8009A019B01F014F9021C0B1C201C291C02F02AFB321C3B1C02F026FB021C0B1C7748784902F020FB4A4656183715002F2C
:4034C00000DCA1E1021C331C0498059902F0A2F8061C0F1C6EE47748049B051C55441D4300D09BE0381C211C3A1C231CF2E44046494642464B4602F08DF8061C0F1CFFF7F5
:4035000059FC480043086C489A46834200DC2BE76A4BC9180A4300D007E1321C3B1C201C291C02F0E9FA021C0B1C0098019900F093FC002800D0F8E05546614A2C158020D9
:40354000A1184403231C0B41191C59444D005D486A0D92468146504A504B5B4BD144181C4D4628410B1C09038343080B574955460443481B04415946A046002900DA40E1E7
:40358000301C391C02F0B8FA061C0F1C321C3B1C0098019901F094F8424613050D1C9946E9E63B4B3B4C049305948DE65946002900DB85E4802420063F18FFF7FBFB231CA6
:4035C00033483449624601F02BFC071C0C1CFFF718FC3F4A924500DD90E05C46002C00DB6EE4FFF72DFC0024A046BFE42848294942464B4601F014FC061C0F1CFFF7DAFB36
:40360000274A284B0498059902F004F8244A254B02F000F8061C0F1CFFF7CCFB049A3E1C271C012A01D0FFF7C5FB80210F06E719FFF7C0FBC046C046000000000000F0BF9D
:40364000FE822B654715973C00000000432EE63FEF39FAFE422EE63F396CA80C615C20BED0A4BE726937663EF16BD2C541BDBB3E2CDE25AF6A56113F93BDBE166CC1663F16
:403680003E5555555555C53F0000000000000040000000000000F03F00000000000000009C7500883CE4377EFFFF8F40000070BF0000E03F000010C0FFCB904000346F3FDB
:4036C00002FCFFFF01FCFFFFFFFF0F0013040000FEFFEF3F002C01D0FFF77BFBC41A291C21410A1CA240AA4201D0FFF742FB012001400224611A0491FFF73BFB564DAA4548
:4037000021DD5846002801DDFFF79AFBFFF7D8FB8021C80280460124FFF728FC5A46002A01DBFFF7CDFBFFF78BFB3C4B3A4A0498059901F06FFF394B374A01F06BFF061C1D
:403740000F1CFFF737FB6046211C354A354B02F0D3F9354A354B041C0D1C01F05BFF344A344B06900791201C291C01F053FF221C029003912B1C201C291C01F04BFF2E4AF5
:403780002E4B0A900B91201C291C01F043FF021C0B1C2B482B4902F0AFF9221C2B1C01F039FF021C0B1C2848284902F0A5F9021C0B1C0A980B9901F02DFF254A254B01F004
:4037C00029FF021C0B1C0298039902F095F9041C0D1C221C069807992B1C00F071FF00220B1C02920393101C069A079B02F084F9021C0B1C201C291C02F07EF9069007918D
:4038000058E56442A046BBE6424600F025FA021C0B1C59E6C046C04659F3F8C21F6EA501000000000000F03F000000604715F73F44DF5DF80BAE543E000000000000D03FCB
:40384000555555555555D53F000000000000E03FFE822B654715F73F0000F03FC046C046F0B55F4656464D464446F0B40D1C854F2E1C83B0041C021C3E40BE4200D1DEE0CE
:40388000002D00DCB7E00F1500D1C0E07E4B0903FC1880270D0B7B032B43E00700D59CE0D10F64105D0080206B18A446520016270026002180030C189C4202DC21181B1BA1
:4038C0003618D50F5B0040085B190C185200013F9C4202DC21181B1B3618D50F5C00013F631952004008002FE5D1802500242027280601940097002480461BE08B4200D1E8
:4039000098E05B00009D99464008D30F4B44013D271852000095B9468B4224DC21D0009F5B009946013FD30F4B44520040080097002F2BD02718B9468B42DFDD4D46EF0F21
:403940002C188A46FD07454539D0591A4A459B415F42CB1B01994D460F18521B01975146CFE79742DBD84D46EF0F2C188A46FD0745452BD0591A4A459B415D424B1B01995A
:403980004F460D18D21B01955146C8E7134329D1019C63083D4F7010C219F50702D58026340623436146080585181C1C201C291C03B03CBC90469946A246AB46F0BDE70F46
:4039C000FF077D427D41AA468A44BEE7E70FFD076F426F41BA468A44CCE7D00F5E00331852005DE7019A511C38D0019D012129404B195B08CEE769004B082343D6D0002743
:403A0000002D32D1D10A153F52050029FAD080246503294225D10023490001332942FBD001242025E61AE81ABF19161CC64031439A402BE7974200D880E7191C61E7221CEB
:403A40002B1C201C291C01F0E5FD021C0B1C201C291C00F035FE041C0D1CA7E70136002398E7202001260023DEE7221C2B1C201C291C02F041F8021C0B1C01F0D1F9041C72
:403A80000D1C93E70000F07F01FCFFFF0000E03F490049087047C0464800024B4108CA18D00F7047000010800B1C011C30B519430222002901D1101C30BD80242506AB4224
:403AC0001ED0114A11499C1804228C42F3D9104D5C198C42EFD90F4903228B42EBD9802215060C495C1903228C42E4D9084A934203D0054D0022AB42DDD142424241DAE731
:403B00000028D8D0EBE7C0460000F0FFFFFFDF7F0000F07FFFFF0F000020704700000000024901487047C046000000000000F87FF0B5474680B4021C041C424F4800450DA8
:403B40000B1CE81982B09846CE0F132831DC00284CDB3D4D0F1C05412F40174323D06A080B1C134023430024002B07D0132866D08025EF0291430741394388463349F6008B
:403B8000221C8C19656824684346201C291C00F097FD0090019100980199221C2B1C01F0ABFF021C0B1C101C191C02B004BC9046F0BD33280ADD8024E600B042F3D1101C7E
:403BC000191C00F07DFD021C0B1CECE7204901276D187842E8400242E5D042081442CDD08023D905944329410C43C7E74D006F081743D8D00B03180B044365422C43802726
:403C00003B03240B1C40231C104CF500490C480467193C687D680343291C201C00F050FD0090019100980199221C2B1C01F064FFF6074B005908331C021C0B43B3E78024AE
:403C4000240695E701FCFFFFFFFF0F00B06A0000EDFBFFFF00000000F0B5474680B43C4F0B1C3B409046041C0D1C021C1B1524D14E0073081A431BD02E4B2D4A01F0CAFCE9
:403C8000344A041C0D1C904532DB0F403B15363B314F4344BB4217DD221C2B1C2648274900F062F8244A254B01F0B4FC041C0D1C291C201C04BC9046F0BD284883421ED0F7
:403CC000254F4344BB42E7DC002B05DD244F1B0539401D1C0D43EBE7181C353018DA21498845D9DC16481749221C2B1C00F03CF8134A144B01F08EFC041C0D1CD8E7201C3C
:403D0000291C221C2B1C00F0DBFC041C0D1CCFE73633134E1D0531402A1C0A43201C111C094A0A4B01F076FC041C0D1CC0E7C04600000000000050439C7500883CE4377E98
:403D400059F3F8C21F6EA501000000000000903C0000F07FB03CFFFFFE070000FF070000FFFF0F8050C3000030B50D1CDA0F6B00D1075C08214330BD002934D001230022D8
:403D800010B488422CD301242407A14204D2814202D209011B01F8E7E400A14204D2814202D249005B00F8E7884201D3401A1A434C08A04202D3001B5C0822438C08A04260
:403DC00002D3001B9C082243CC08A04202D3001BDC082243002803D01B0901D00909E3E7101C10BC7047002801D00020C04307B4024802A14018029003BDC04619000000D3
:403E00000029F0D003B5FFF7B9FF0EBC4243891A1847C0467047C0468446101C62468C46191C634600E0C0461FB501F087FB002801D40021C8421FBD10B501F0CDFA4042A1
:403E4000013010BD10B501F079FB002801DB002010BD012010BDC04610B501F06FFB002801DD002010BD012010BDC04610B501F0F1FA002801DC002010BD012010BDC046A7
:403E800010B501F0E7FA002801DA002010BD012010BDC0469E2110B5C905041C02F074FB002803D1201C00F043FB10BD9E22201CD10500F063F900F03BFB80231C0600195F
:403EC000F3E7C0460000000038B50E4B0C4A041C0D1CFFF7D5FF002804D1201C291C02F08DF938BD074B064A201C291C01F004FE02F084F9802319064018F2E7C046C046C4
:403F0000000000000000E041F0B55F4656464D464446F0B44502440083B00E1C6D0A240EC70F002C07D1002D00D091E0042101228846924609E0FF2C55D0802318040021D9
:403F40000543ED007F3C88468A46331C58007602D90F760A000E8B464CD101229446002E00D081E05B467B406246414601930A430F2A50D9201A690181467501A94200D367
:403F8000B3E00122534299441B2400260127621E381C10404B007600002900DAA9E09D4200D8A6E0013C002C00DCABE000280CD0191C76005B00002901DB9D4201D85B1B91
:403FC0003E43013C002C00DC9CE059007200002B01DB8D4201D8491B3A43013C4B0056000029EADAEBE7002D2DD10820022180468A46AAE7FF2820D08022130400211E4398
:404000008C465B467B4062464146F6007F3801930A430F2AAED8564992008A589746019BFF260025F0052843DE07304303B03CBC90469946A246AB46F0BD331C5A1E9341C7
:4040400002339C468EE70C22032390469A467CE7281C02F0A3FA7622441F5342A5401C1A00208046824670E7301C02F097FA7623411F8E405A420021101A8C4672E70023F9
:404080003C4DFF26CEE75F46351C01976346022BC5D0032B63D0012B43D049467F31002935DD0F272F40042F00D004352B0103D5314A494615408031FE29B0DCA801450AEA
:4040C000CEB2019BAEE700260025ABE78020C1030D4211D00E420FD10E4373025D0AFF265B469FE701975346D1E7491B1A2401264CE75B1B3E4355E70D436A02550A3B1C6B
:40410000FF268FE71D1C6B1E9D413543C5E77E2467424A46B91A1B2908DD019B0026002580E7019D00262B4000257BE74E469E36281CB5402B1C5D1EAB41C84003430F2574
:404140001D40042D00D004335A0103D5019B0126002567E79C01650A019B002662E78027FC0325436E02750A019BFF265AE7C046C06A0000FFFF7F00FFFFFFF7F8B5430298
:4041800045004F024C00C20F980984462D0E200EC90FBF09FF2854D0012671408A423BD02C1A002C00DC89E0002825D1002F4BD16E1C2C1C6346151C0F221A40042A00D089
:4041C00004338027F904012219402A40002906D0FF2E00D181E0B14D341C2B400136F6B2DD08012E62DD6B025D0AE4B2E4052543281CD2071043F8BDFF2D51D08021CB0418
:404200001F4301261B2C70DD67462C1CBB1B151C580122D4661CCFE72E1A002E76DD002832D0FF2D3CD08024E1040F4301231B2E00DCD1E063442C1C58017AD4661C151C95
:40424000BAE7002FAAD1A7E7013C002C6DD163462C1CDB1B151C5801DCD59A019609301C02F09CF905388640844239DC001B1F231A1A331C311C441C9340E1405E1EB341C0
:404280000B430126002497E7002F00D190E7013E002E03D164463B192C1CCDE7FF2DC5D1151C802263465600FF2485E7002D9CD0002C28D08020C7033D4394E7002C45D1AE
:4042C0006B1CD8B2012800DC90E06446E61B730157D53E1B2C1C0D1CC1E7FF24002585E76E4B241A3340661C66E7381C2021E0400C1BA7403E1C771EBE41064367462C1C9F
:40430000BB1B151C84E769024D0A6FE7002E79D16C1CE0B201284BDDFF2C00D198E061467F18AE1C7B08151C46E7FF2D00D068E7B6E7671CFF2F36D05848012119400340B6
:404340005B08A61C0B433C1C151C35E76642002D1ED0FF286FD080256246EB041A43944601251B2E09DC62462023F24064469E1BB440251C6C1EA54115437B1B041C0D1CD9
:4043800069E7002E0CD1002201260423002426E76446002C55D1461C3B1C041C0D1C0BE72C1C151C5BE780235E00FF24042316E7002D00D08DE06546002D00D1ADE0002F3F
:4043C00000D181E07B195C0100D47EE0334F151C3B4002260124EFE6381C2023F0409E1BB7403B1C5F1EBB41034323E7002D15D16546002D47D1002FC5D03B1C0D1C012613
:404400000024D9E67642002D26D16546002D00D07DE0461C3B1C041C151CCDE66546002D40D1002F07D1802100224E001C4BFF24D5E6FF2894D180203B1C0D1C4600FF24A0
:40444000BAE6013E002EF4D13B1B0D1C041C02E780256E000423C2E6FF2852D080246146E30419438C4601231B2E09DC20216446F44065468E1BB5402B1C591E8B412343AD
:40448000DB19041CD8E6002F1ED0EB1B58014BD57B1B01260D1C00248EE6C046FFFFFFFBFCFFFF03002F00D1FAE68020EB08C403234237D0FF08274234D13B1C0D1C8022D8
:4044C000DB005600FF2477E66346151C0126002472E66446002C14D0002F00D1E0E68023E608D803311C064203D0F908014200D0311C151C8022CB005600FF245CE6FF2859
:40450000B1D180203B1C151C4600FF2454E6013E002EF4D17B19041C8EE63B1C151C0126002449E6151CCAE7002B00D12BE7CCE743024200590A00B5130EC20F00207E2BD5
:404540000DDD9D2B0CDC802000040143952B0ADC9620C31AD9404842002A00D1081C00BD02495018FBE7963B9940F4E7FFFFFF7F70B5041E3CD0C50F00D04442201C02F0C0
:404580000DF89E21261C0B1A962B0ADC0838844061024C0ADBB2DB051C43ED07201C284370BD992B0ADD0522141A311CE140041C1B34A6400A1C711E8E41164305281BDC14
:4045C000144C0F2234401640042E00D00434620105D59F231B1AFF2B0CD00E4804405E1CF1B2E40801290ADD6402640ADBB2D2E7002500230024CEE7411F8E40E0E7002CDC
:40460000F4D0002B03D08022D0030443ECE76602740AC0E7FFFFFFFB10B5041E34D001F0BDFF9E231B1A962B07DC083884406402610ADBB2D805084310BD992B0ADD021C52
:404640001B32211C91400A1C511E8A410521091ACC40144305281ADC184A0F2122400C40042C00D00432510105D59F24231AFF2B21D012480240591CCCB2D208012C09DD77
:404680005002410ADBB2D5E700230021D2E7421F9440E1E7002A0BD0002B06D08021CC0322435202510ADBB2C4E75002410AC1E7DBB20021BEE7FF230021BBE7FFFFFFFBE3
:4046C000F8B55F4656464D464446F0B40C03460F640A3443A3465E001C03DB0F9C46630A98464D00530F44461C436D0DC90F760DD2000F1CC000A1469246AB1B614500D11F
:40470000A4E0002B00DCF5E0002E0CD1261C164300D1C2E0013B002B00D046E15C464B46821AE71A21E0D24EB54200D1CDE080244A4627043A439146382B00DD0FE11F2B0F
:4047400000DD50E12026F61A4C4652465746B440B740DA4022433E1C4C46771EBE41DC403243261C5B46821A9F1B904280414642BB1B141C2E1C0F1C180200D4AEE05D02E9
:40478000690A88464246002A00D1D9E0404601F005FF051C083D1F2D00DDDAE02822131A201C4146D840A940031C0B43AC40AE4200DD90E0AE1B711C1F2900DD00E11F204C
:4047C000851B1A1C201CAA40C840AC401043661EB4410443CB40012200260F202040042864D0201DA042A441654280215B1901240D041D402740002D07D09D4EB24200D105
:404800009AE09C49161C0B4001325C07C00852050443DB08550D012D62DD1B0376051B0B760D00200021090D201C0A05924C1343760575081C402C436300FF0759083943CD
:404840003CBC90469946A246AB46F8BD002B00DC91E0002E31D0864EB54200D1A9E080244E4622041643B146382B00DD18E11F2B00DD73E12026F61A4A46B2409046524689
:404880004446DA4022435446B440261C741EA6414C463243DC401218F6E0041C0F206A1C5B462E1C0F1C204004289AD180252D0401211D400F40201C9DE7144300D0DDE059
:4048C0006A1C5B46041C2E1C87E780215B46041C0A012E1C81E7761B664D2B40721C7CE7211C194300D167E2002E41D080200203134392E7002B00D088E0691C4E05740DD8
:40490000012C00DC1AE15B46161C4C46821A191B90429B415B42C91A88460B0200D49EE0371ABA4592415E46A41B5342E11A88463C1C2E1C674625E7161C0023002470E7D4
:40494000201C01F02BFE2030051C083D1F2D00DC24E7031C283B9C40231C002427E74A4653461A430026002A00D1FBE60122F9E61D032B0B55E7002B00D004E16E1C74052A
:40498000630D012B00DCAAE039498E4200D130E11118814280414B4642425B449B18DC0749080C435B08AA1C17E7314FBD4200D0C2E6041C80205B460F1C02012E1C0CE740
:4049C000301C1F381A1CC240151C202900D182E03F218E1BB3401C43631E9C412C43012200230026F9E61C1C203C4F46E7403E1C202B72D04022D41A4B46A3401A1C5746EE
:404A00003A43531E9A4132430026ABE65F42002D50D0174DAE4200D155E180245A4621040A439346382F00DDDAE01F2F00DD78E12021CC1B051C5A46A240FD40A0401543E7
:404A40005B46421E90412843FB4057463C1AA24592414846C11A55424B1B67468CE6081C104330D100270122002304200026CCE6FF070000FFFF7FFFFFFF0F80013B002B35
:404A800024D153461A184C46824280415C444342E3182E1C141C18023ED4721C0F1C9CE64A4653461A430024002A00D1F3E601221218E9E75B46034300D083E0231C721C9C
:404AC0005446674689E6141C2E1C5BE6CD4EB54200D0C9E66DE700237DE700228FE75E460643002D00D0F4E0002E00D14CE14B46134300D17EE115184E46854280415E4455
:404B00004242B3181E0200D482E1BF4F2C1C3B4002220F1C012660E6BA4D701CA8424BD0B94F0125254062083B402C1CDF0714433C43B21C5B08061C0F1C4EE65E4606438F
:404B4000002D2CD1002E00D07DE04E46141C164388D04B466746012200263EE61E1C203E4C46F440261C202B00D1D8E04022D41A4B46A3401A1C54462243531E9A41324362
:404B80000024121880E75B42002D37D15C46044300D0D7E0721C4B4654460F1C1DE6002E6ED14B46141C134300D1DCE080254B4667462A01934E10E68021061C0A01002330
:404BC000042022E6013F002F79D1171A5B46BA45AD414946CA1A68423C1C131A6746CBE55F46074300230020002F00D12DE701202BE780252A010023042006E6814DAE42D8
:404C000000D1D3E080245D4622041543AB46382B00DDB0E01F2B00DDDBE02025ED1A021C5C46AC40DA40A840451EA841224302435846D840031C55465419544592414B44C0
:404C400050421B1827E74A465646324300D185E0851B5B464C46A8429241191B56428B1B1E0200D4ADE057463D1A5B46AA458941E41A4A42A31A67462C1C01220026ACE5A3
:404C80004D46161C154344D05C468021C0086207E3080D0310432B4200D181E04C46E10829427DD1F70866073E430B1C6746700FDB008022F40003431201524E8DE5514D74
:404CC000AE4200D0AEE680204B4654466746020183E5002E5ED04C4614431AD0C7088025584643072C03C0081F43204208D04E46F308234204D15246D5087707181C2F43FD
:404D0000C300FC00780F0F1C802103430A013D4E63E5802632015B46041C3A4E5DE5002229E7391C20395C46CC40221C202F67D04023DF1B5D46BD402843431E9841104392
:404D4000002382E6013B002B2CD150445C469042AD414C446A42A318041C9CE65B46041C0122002639E58024042100272201274B4842244E49E55D46054300230022002D81
:404D800000D158E7012256E7141C4B460F1C0122002622E5141C80224B461201194E1CE5061C84E7174A964200D030E70F1C80214B4654460A0110E57405660D0023002492
:404DC0002FE5181C284300D14CE62C1C0122002603E51C1C203C5D46E5402C1C202B1CD04022D31A5A469A400243501E82412243002320E75B46041C0F1C01220026ECE4D6
:404E0000002599E7FF070000FFFF7FFFFFFF7F002C1C0F1C01220026DFE40022E4E7C046F0B54D4644465F465646F0B41D1C4B00141C0E035B0DCA0F87B0071C360B984636
:404E40009146002B1DD1321C024300D181E1002E00D104E2301C01F0A1FB272800DDF8E12821031C083B0A1A391C9E40D1400E439F40C14B0021181A002280468A460092CD
:404E80000FE0BE48834231D080214B031E43BC487A0FF600002100231643FF0080448A460093291C201C251C4A000C03CB0F240B520D9B4625D1211C014300D150E1002C98
:404EC00000D1C2E1201C01F069FB272800DDB6E1031C2822083B291C121A9C40D1400C439D40A54B1A1A0020029019E0321C3A4300D029E108270223BA460026002700930C
:404F0000CFE79E48824200D113E180214B031C439B49680FE40000230443ED005218029348465B46434002985146019301430F2900D8DFE043469A1A0492A64200D86EE1FD
:404F400071087B08F6073343FA07894698460292280E240204432D022704390CAB46250C00914846291CFEF707FF009F061C4743291C4846FEF744FF434608041A0C104359
:404F8000874207D90019013E844203D8874201D9013E0019C11B8A46081C291CFEF7ECFE009B071C4343291C50469946FEF728FF424610040B04010C0B43994504D91B1951
:404FC000013F9C4200D864E136043E435F464A46390C89469B1A59463204170C0A0449467943120C03928C460399300C7A4341434F4678438C44170C6744B94202D9802169
:4050000049024018390C120440183F04110C7F18834200D227E100D141E102991B1ACF1BB942804141425A1A9046A24200D15FE1101C291CFEF7A0FE009B02904343291C5D
:4050400040469A46FEF7DCFE380C090401438A450AD9029A0919013A02928C4204D88A4502D9013A029209195346C81A291C0590FEF782FE009A291C424380460598924679
:40508000FEF7BEFE3F040D043A0C2A43924509D901214B4212199844944203D8924501D998441219029D43462F041F435046111A3804030C4D465D430398AC46039D3A0CF1
:4050C000584355434B465A43AC44030C63449D4202D980256D0252191D0C000452191B04050C5B19914200D2E6E000D13DE1012217435AE0890023488C46604401688F467B
:40510000019B1E4A0026002700200021381C0F0D3C051D4D34431205254015436E00DB077108194307B03CBC90469946A246AB46F0BD211C03202943029000D0F0E602233F
:40514000002400250293EBE60C20032182460091A7E604270123BA46002600270093A0E60121002400250291DAE601270023074E7F42024AC8E7C0460DFCFFFFFF07000068
:4051800001FCFFFF006B0000FFFF0F80FFFF0F002F1C5A46029D261C0192022DB0D0032D00D101E1012D00D19CE0049B82481A18002A00DC8CE00F243C40042C05D03B1D6A
:4051C000BB42BF417D4276191F1CF10105D57B4A04998020C40016400A19794B9A4200DD8EE77507FF08760251052F43360B4A0D019B89E700220026002785E78020010346
:405200000E4216D00C4214D10C432603360B5B462F1C6C4A78E74C460194009DBDE7A64243D00498B846013800270490B14602978EE60E4333031E0B624A4B4664E7041CFE
:40524000283CA5402C1C00254BE601F0A7F920303BE6061C283EB7403E1C002709E601F09DF92030F9E5029A013E111C59445945924152421219D3189C4204D298426BD810
:4052800016D01B1ACBE6A342FBD18B45F6D9231AC5E6994500D897E6013F1B1994E6029ABA42E0D302990023B9E6AF42B9D947E68F4251D80023B2E60919013F58468C42EE
:4052C00019D9914200D012E7984200D00FE76CE73D4C049D631B382B1CDD019B00220026002711E7019B00222B40002600270BE701277F4259E78A4203D800D0F7E6984267
:40530000E2D25D4668005845AD416D422C19013F0919D6E71F2B34DC049C2C4A381CA518311CAF40D840A9403C1C0143671EBC410F1C2743DE400F233B40042B05D03A1D79
:40534000BA42BF417D427619171C320211D5019B012200260027D7E659445945924152421219D318013E1B1A59E6002BA4D10020AAE77007FF08710207430E0B019B0022FF
:40538000C2E61349049C301C0A1BD040051C202B08D0104BE1188E4037437B1E9F412F430026C8E70026F7E780221003064331030E0B019B034AA7E6FF030000FFFFFFFE66
:4053C000FE070000FF07000002FCFFFF1E040000E2FBFFFF3E040000F0B5944647461A03061C580080B4170B420D19480D034C00DB0F2D0B640DC90F9846844208D014481F
:4054000082420DD00120944212D004BC9046F0BD2B1C33430120002BF7D10D488242F1D163463B430120002BEFD101209442ECD1BD42EAD16645E8D1414506D0002CE4D1C1
:40544000281C3043451EA841DFE70020DDE7C046FF070000F0B557464E464546E0B4041C4E000803C90F8A46171C59001A03050B700D160B4A0D3049DB0F9C46884232D09E
:405480002D498A4235D000280FD1291C21434B424B419846002A0BD0002B1AD1E2452CD05546002D18D1012018E0002AF6D19046311C39434B424B414146002906D1002B9A
:4054C000ECD056460120002E08D005E00020002B04D16746002FE6D1012358421CBC90469946A246F0BD2B1C2343C9D002214842F4E7331C3B43C6D0F8E7904205DC09DA0F
:405500005246002AE8D00120E8E75446002CE3D10120E3E7B542C3D807D00020B542DDD250460028D8D00120D8E7BC42B8D80020BC42F5D3D2E7C046FF070000F0B54446BF
:405540005F4656464D46F0B49446061C1A035800170B420D2E480D034C00DB0F2D0B640DC90F9846844233D02948824236D0002C19D0002A20D1934663463B43584258414F
:405580005B468246002B1DD051460020002904D14246002A14D1012460423CBC90469946A246AB46F0BD2B1C3343584243419B46002AE1D0002BEBD1414515D00029EAD157
:4055C0000120EAE70028F7D001200029E5D0E2E72B1C33430220002BDFD1C5E763463B430220002BD9D1C2E79442E7DC05DBBD42E4D806D00020BD42CFD20029CBD0012026
:40560000CBE76645DAD800206645F6D3C5E7C046FF070000F0B5564644465F464D46F0B44F001D1C0B03141C1A0B7B0D87B0061C92469846CF0F002B21D1024300D149E1AB
:405640005346002B00D1E4E1504600F0A7FF031E272B00DDD8E1083B5146994028228846111A321CCA4041460A4392469E40D84B0022181A002180469146039111E0D548EC
:4056800083423ED0802153464A031A43D000710F0843D14A824600230020F600904499460390291C201C251C4A000C03CB0F240B520D9B4631D1211C014300D112E1002C5F
:4056C00000D19DE1201C00F069FF272800DD91E1031C2822083B291C121A9C40D1400C439D40BB4B59461A1A794000204B46019103430F2B26D89900B84B8C46634419680A
:405700008F46111C314300D0DFE0082600200221B146824600260391C3E7AE48824200D1C9E080214B031C43AB49680FE4000443ED0052180020594679404B460191034380
:405740000F2BD8D942443304290404921A0C0F0C101C7843360C331C80462D0C7B43301C6843111C69439C4643468346180C08186044844500D91FE1010C43460391190473
:405780000B0C0004C0182104240C0590101C6243090C02924843321C66434A43029BB146060C9046B4461A1C62444244904502D9802673029944160CB046C14400044B4651
:4057C000060C12040293931956463204100C021C6A439C46031C7B439146320C574398461B0C9A46D144B94455434F4502D980277E02AD194B461F0C4646ED191F04330486
:405800001E0C031C4B436043514354431A0C8018B046401847449A46814202D980214E02A419039B1A1C62445A44624589414E425146B34603040E049C460299330C6344DB
:40584000CE18B046C246DA44D219BA42BF4151467B426F18F9189946DA459B415E42029BB3469845B64176425B461E43000C49459B41AF42AD4136186F42584238433618FE
:405880000598341956020643CB0D6402701E8641D20D164349021C430E43E0012FD50127049D374073083E1CE00701351E4304950643640823E0231C2B430320002B00D003
:4058C00039E700240025022035E70C22032391460393E6E6042600230120B1469A4600260390DEE600240025012024E703985446022844D0032800D1EAE0012860D0049A0D
:4059000037495018002800DC95E00F273740042F05D0311DB142B641754264190E1CE10105D53048049A8023DF000440D0192E49884224DC019B6507F6086402420501271E
:405940002E43240B520D1F4000200021090D0D052543264C12052C4014436300301C5E08FF07311C394307B03CBC90469946A246AB46F0BD5A462E1C01920228BAD1019E0D
:4059800001273740134A00240026DDE7544601970398ADE701260027154C76420D4AD3E72E1CA5E7802213035146194235D10B431D032C0B074AC7E780214B029B44DBE64C
:4059C000019B00221840C7B200240026BCE7C0460DFCFFFFFF07000001FCFFFF406B0000FF030000FFFFFFFEFE070000FFFF0F80FFFF0F00041C283CA5402C1C002570E6AA
:405A000000F0CCFD203060E6283B9E40B24600262DE600F0C3FD203019E61C4206D11C432603340B5F462E1C2E4A8DE70B431803040B2C4A88E72C4F049D7B1B382B06DD7A
:405A4000019E012737400022002400267CE71F2B21DC049A254F351CD119201C8E40DD408840321C2843561EB241061C1643DC400F233340042B05D0371DB742B64171423F
:405A800064183E1C250217D5019B01271F4001220024002658E71648049A211C871AF9400D1C202B12D0134BD01884402643721E96412E430024DBE7019A6507F60860022D
:405AC000012717402E43040B00223DE70024EDE780210F033C43019824030127240B0740004A31E7FF07000002FCFFFF1E040000E2FBFFFF3E040000F0B557464E464546D5
:405B0000E0B4071C0D034E00680ACC0F790F08438446111C18035A00FD00400ADF0F4B0F1843CA4BC900760D520D8A469A4200D1E0E001235F40B946BC4200D1A8E0B71AF3
:405B4000002F00DC10E1002A12D15246024300D1D4E0013F002F00D060E151466F1ABD42AD4162466B42101A3D1CC31A371C24E0B64A964200D1E3E080210B041843382F43
:405B800000DD23E11F2F00DD66E12021C91B021C53468A40FB401A4353468B40191C4B1E9941031C0A43FB40AA1A67469542AD41F81A6B42C31A151C371C1A0200D4C7E0E4
:405BC0005E02710A88464246002A00D1F0E0404600F0E4FC021C083A1F2A00DDF1E02823181A2E1C4146C6409140331C0B439540974200DDA9E0D01B411C1F2900DD12E1C6
:405C00001F273A1A2E1C181CCE409040954030436A1E9541CB400543012100270F262E40042E00D172E02E1DAE42AD41684280221B180125100418402C40002807D0834FBD
:405C4000B94200D1B0E0824A0F1C13400131F20849055E073243DB08480D012800DC79E01B0378051E0B470D00200021090D7D050B05784F1E43101C37406A0817437E007E
:405C80007108E40721431CBC90469946A246F0BDB31A002B00DCA6E0002A3ED06B4A96424ED080210F043843382B00DC18E15346184300270022002800D001225219AA42A7
:405CC000AD4167446B42FB18151C371C1E023FD55E487E1C864200D17BE15D4901222A400B406808151CD90705430D435B08B91C371C93E7014300D11BE71CE7711C371CC8
:405D00000F2663462E40042E00D08CE7802201261004344018402E1C8FE752460243EDD0013B002B09D157467919A9429241554260444319371C0D1CC8E744498E42B3D1CE
:405D4000802063460101371C68E7BF1A404A1340791C63E7151C1D4300D121E2002F3ED0802631030B437BE7002F00D086E0721C51054B0D012B00DCF0E05746EA1B954283
:405D80009B416746391A5B42C91A88460B0200D49DE05446651BAA459241C01B5742C31B9846371C4C460EE70F1C002600225BE7281C00F0F3FB2030021C083A1F2A00DCC9
:405DC0000DE7283885402B1C002511E75746384300230022002800D1E6E60122E4E61D032E0B002740E7002B00D0D9E0771C79054A0D012A00DC95E0144B9F4200D1FEE0E9
:405E000051464919A942AD4162466B428018C2184908D5070D435308B11CFFE60B498E4200D0ACE68CE7061C1F3E1F1CF7403E1C202973D03F22101A83401D436B1E9D415A
:405E40003543012100230027E8E6C046FF070000FFFF7FFFFFFF0F803B1C203B011CD9400B1C202F5CD04022D71BB840021C50460243511E8A411A43002395E67F42002E68
:405E800040D0CA4CA24200D11FE1802166460B041E43B446382F00DDA9E01F2F00DD3DE12023DE1B291C6446B440F940B5406B1E9D41214363460D43FB4057467D1BC01ADF
:405EC000AA459B415F42C31B4C46171C75E60D1C154320D100240121002304260027B6E61F2B4ADC2021C91A071C52468F40DA403A4357468F40391C4F1EB941D8400A432E
:405F0000071CDBE664462C4369D1511C031C5546171C4C4682E6151C371C54E600238CE70022A4E767462F43002E00D0D4E0002F00D126E15346034300D1E4E051464F198A
:405F4000AF42AD4160446E4283191E0200D44EE197483D1C0340022101275FE661462943002E29D1002976D151460143B2D0031C55464C460121002750E61F1C203F011C9A
:405F8000F9400F1C202B00D1C6E04022D31A9840021C50460243531E9A413A4300278DE65B42002E30D167462F4300D0C8E0511C031C5546171C31E6002965D1574607431E
:405FC00000D1C8E0031C802055464C460101774F24E68023371C19010426002337E6013F002F6ED154466146651B401A68E767463D430023002D00D15FE701255DE7802634
:4060000031010023042622E668498A4200D1C1E08027664639040E43B446382B00DDA2E01F2B00DDD0E02021C91A2E1C67468F408D40DE403E43291C67464D1EA941DF40BA
:40604000351C0D433E1C554455459B4130185E428319171C3AE65646064354D05746EA1B63469542B641191A7342CB1A1E0200D4A2E07D1B6446AA45BF41001B7A42831A35
:406080004C4601210027C9E5564606433FD0624680215707ED08D3080A033D43134208D0C608164205D15546EC0845072543331C4C46680FDB0080260343ED0031013B4F2B
:4060C000ACE53A498A4200D0E4E68026031C55464C463101171CA1E5002F4CD05346034315D062468026ED085107D30837030D433B42DED0C2083A42DBD15546E908450745
:40610000131C0D43D5E763460121002786E5802739016346254F81E500223AE73C1C203C6646E640331C202F5FD04024E71B6646BE40311C0D43691E8D411D430023BCE6A6
:40614000013B002B22D155445545BF417B426044C318171CBAE58021042200240901154B5642124F73E563461D430026002D00D169E7012567E78022031C554611010B4F25
:406180004CE5031C55460121002747E507498A4200D042E78021031C55460901171C3DE57F057F0D002600225EE5C046FF070000FFFF7FFFFFFF7F001D1C154300D189E63F
:4061C000151C0121002729E51F1C203F6146F940202B10D04026F31A67469F403B1C1D436B1E9D410D4300262DE70021A2E73D1C0121002712E50023F1E7C046134A0B031C
:4062000030B5051C48001C0BC90F430D0020934211DD0F4883420FDC802250030D4A0443D01A1F280BDD0C4DEB1ADC40221C5042002900D1101C30BD084C0819FBE7C54072
:4062400007482A1C1D18AC402243F0E7FE0300001D0400003304000013040000FFFFFF7FEDFBFFFFF8B5041E2DD0C50F00D04442201C00F093F916490A1A0A2816DD0B38C1
:406280008440570526037A0D360B002700200021381C0F0D3B050F4C33431C401605344361004A08ED07111C2943F8BD0B26011C301A1531231CC4408B40520521031F1C5F
:4062C0000E0B520DE2E70025002200260027DDE71E040000FFFF0F8070B5041E26D000F05DF914490A1A0A2813DD0B38844056052403720D250B002600200021301C0E0D2A
:4063000033050D4C2B4311051C400C436500690870BD0B23051C181A1535211CC440A940520525030E1C2D0B520DE5E7002200250026E1E71E040000FFFF0F80410070B54F
:406340000E0E731C4202C50FD8B2540A012815DD6307E024A000120B341800200021181C0B0D1E051C4B324361054C08134023435A005608ED07311C294370BD002E16D13A
:40638000002C1ED0201C00F009F90A281DDC0B22111A021C231C1532CB4094401E1C231C34030E4E220B301A41054C0DD5E7002C03D06307120B0A4CCFE7094C0022002385
:4063C000CBE7002400220023C7E7011C0B398C40261C0023E4E7C046FFFF0F8089030000FF070000F0B5041C4800400D0A03CD0F411C630F520A4F051A43E6007B0D012B99
:406400003BDD42494318FE2B2CDC002B4EDDA401770FD200611E8C413D4E224380193A430F261640042E47D18027FC0414401DD0FF2838D0374B1A40031C0130C6B2D2081E
:40644000012E17DC002A06D0002B29D08027FC03224351024A0ADBB2DB051A43ED07101C2843F0BD802148000422FF23C6B2D208012EE7DD51024A0AEDE7002806D13243BD
:406480000120002A15D104220023EFE71643E9D08024A004D20080260243FF237000BFE75002420AD8E7FF230022D5E7173305DA012005220023D9E70432B5E78023164FB2
:4064C00019040A433C1A1F2C0DDC1449331C4718BE40301C461EB041BA40E34002431A43012000239CE70E4B171C191ACF403B1C202C09D00B4C001982403243561EB24120
:406500001A43012000238BE70022F6E780FCFFFF81FCFFFFFFFFFFFB9E03000082FCFFFF7E030000A2FCFFFF8446081C6146FFE71FB500F0C1F8002801D40021C8421FBD26
:4065400010B500F049F84042013010BD10B500F0B3F8002801DB002010BD012010BDC04610B500F0A9F8002801DD002010BD012010BDC04610B500F057F8002801DC0020FA
:4065800010BD012010BDC04610B500F04DF8002801DA002010BD012010BDC0461C2101231B04984201D3000C10391B0A984201D3000A08391B09984201D30009043902A2DF
:4065C000105C40187047C046040302020101010100000000000000004302420070B55C0AC60F130E48024A00450A120EC90FFF2B05D0FF2A08D0012093420BD070BD012009
:40660000002CFBD1FF2AF6D10120002DF6D101209342F3D1AC42F1D18E4203D0002BEDD1002CEBD10020E9E7F0B5430242004F00C60F48025C0A450A130EC90F3A0EFF2BD5
:4066400026D0FF2A29D0002B0CD1604260418446002A0AD0002816D18E4221D0002E14D1012014E0002AF7D194466F426F416046002805D1002FEFD00120002E07D004E028
:406680000020002F03D10029EAD101214842F0BD002CD6D002225042F9E7002DD3D0F9E79342DBDC04DBAC42D8D80020AC42EED2002EEAD00120EAE7F0B5430242004F0036
:4066C000C60F48025C0A450A130EC90F3A0EFF2B26D0FF2A28D0002B0FD0002A14D194466F426F416046002814D00020002F03D100290DD101214842F0BD604260418446AE
:40670000002AEDD00028F3D18E4211D0002EF1D10120F1E7002FF7D00120002EECD0E9E70220002CE8D1D4E70220002DE4D1D2E79342EBDC04DBAC42E8D80020AC42DBD2B8
:40674000002ED7D00120D7E7014B18687047C0465401002070B50E4B0E4D0024E81A85101E1CAC4204D0A100725890470134F8E700F008FA0849094A0E1C541AA51000247A
:40678000AC4204D0A300F05880470134F8E770BD906B0000906B0000906B0000986B000000B58218031C934202D019700133FAE700BD00000000000000300F4000040040FD
:4067C0000F40000402000F4052300F4026310F403B320F4026330F4007400F400B410F4004420F4010430F4002600F40802D832D030208020A040C08130318041A022208FB
:406800002E013008310132013302340639203E103F104030410449FF4AFF4BFF4DA04F04501852805425580459045A045B045C115D115F01604062C06440654066C068C09A
:406840006AC06CC06EC08201920494019602AC08B002B204B408B601B902BE10C030C104C5D0C602C710C826C9FFCAFFCBFFCDAFCE0FCF04D018D804D904DA04DC13DD018C
:40688000DF01E040E2C0E440E540E6C0E8C0EAC0ECC0EEC00202030805010A080D080F8010021102178018181A401C041D091F8022062308278031023802401042A046A026
:4068C0004D025503568059025A44600470038A84C013C232C489CC01CE01D0C3D60BD8044060410449FF4AFF4BFF4DA04F0450185A045D015F01604062C06440654066C088
:4069000068C06AC06CC06EC0910292039703AA02B101B202B401B702C020C105C5D0C602C701C816C9FFCAFFCBFFCDAFCE0FCF04D018D280D425D804D904DA04DB04DC11A3
:40694000DD11DF01E040E2C0E440E540E6C0E8C0EAC0ECC0EEC00A4010081A041B1821022240300831024204464049014B804F2050085240534059015A805B0860047240CF
:4069800087489004A708A804AB40AF88C208C402CC03D084D228D60BD804E624E808EC01EE400D20500256806F20C280D4C0DA805D0281028A809E80A920AF20B402D680B6
:4069C000E620E820EE1052206C80D404DC02182019101C8067108110884093109420AA20AC80AF10B410C60ED801E604EE02100A1101000004000000010000000100000021
:406A0000100000000004000078780000505000000000FFFF0000FFFF000100000000014004000140080001400C000140100001400800044008010440080204400803044012
:406A400008040440000004400001044000020440000304400004044032001E00050005000A000A000402000000010000010100006C6F670000000000706F77000000000059
:406A800000000000000000000000004003B8E23F000000000000000006D0CF43EBFD4C3E000000000000F03F000000000000F83F000000000000304300000000000030C394
:406AC000743F00001E400000C640000086400000C64000007E400000C6400000864000001E4000001E4000007E40000086400000E4400000E4400000E4400000CC40000071
:406B0000344F000000510000F451000090510000F45100006A510000F45100009051000000510000005100006A51000090510000165200001652000016520000FC51000072
:406B400044570000A0590000A059000074590000EC580000EC5800009459000074590000EC58000094590000EC580000745900008C5900008C5900008C590000A45900008B
:406B800043000000F8B5C046F8BC08BC9E46704719040000110D0000F8B5C046F8BC08BC9E467047F1030000B86B0000C8000020900000006000000000000000C0F1FF0F1D
:406BC0000801044008000440010C0000006CDC0280BB0000300000000000C05D0100000000000000000000000000000000000000000000000000000000000000000000001C
:406C0000806B000000000000000000000000000000000000000000000000000000000000000000000000000000000000000000000000000000000000000000000000000069
:406C400000000000F0000020000000000000000000000000000000000000000000000000000000000000000000000000000000000000000000000000000000000000000004
:406C800000000000000000000000000000000000000000000000000000000000000000000000000000000000000000000000000000000000000000000000000000000000D4
:406CC0000000000000000000000000000000000000000000000000000000000000000000000000000000000000000000000000000000000000000000000000000000000094
:406D00000000000000000000000000000000000000000000000000000000000000000000000000000000000000000000000000000000000000000000000000000000000053
:406D40000000000000000000000000000000000000000000000000000000000000000000000000000000000000000000000000000000000000000000000000000000000013
:0200000490303A
:0200000009975E
:0200000490402A
:200000000000000000000000000000000000000000000000000000000000000000000000E0
:0200000490501A
:0C000000000204C81193110104EC1B2A3B
:0200000490600A
:0100000001FE
:00000001FF