:400000000010002011000000E9040000E904000080B500AF00F06CFA80B584B000AF021CFB1D1A70224A3B1C0B3312781A70214A3B1C0A3312781A701F4B1B68013BFB60E7
:400040001AE01E4B1868391C0B31FA68131C5B009B18C31801331B780B70184B1868391C0A31FA68131C5B009B18C31802331B780B70FB68013BFB60FB68002B0ADB0F4B59
:400080001968FA68131C5B009B185B5CFA1D12789A42D6D90A4B3A1C0B3212781A60094B3A1C0A3212781A60BD4604B080BDC046CCF1FF0FCDF1FF0FDC400000CC000020CE
:4000C0001CFF0B4020FF0B4080B500AF144B144A12688021C9020A431A603020FFF79CFF104B114A1278D2B21A60052000F00CFD0E4B35221A600E4B10221A600D4B80227C
:4001000012061A600C4B802212061A60044B8022D2021A60094B0A4A1A60BD4680BDC04600010B4028FF0B40FDF1FF0F2CFF0B403002024008010B4004010B400000024071
:400140008008008080B586B000AF72B65C4B01221A703B1C173300221A7026E03B1C17331A78131C5B009B185B00564A9B183B613B691A78597809020A43997809040A430A
:40018000DB781B0613431A1C3B6919795B791B020B439BB2101C191C00F02AFA3B1C17333A1C1732127801321A703B1C17331B78022BD3D93B1C173300221A7038E03B1CB8
:4001C00017331A78131C9B009B185B003E4A9B18FB60FB681A78597809020A43997809040A43DB781B061343BB60FB681A79597909020A43997909040A43DB791B061343F0
:400200007B60BA1CFB68197A5B7A1B020B431380BB1C1B88B9687A68081C111C1A1C00F0F7F93B1C17333A1C1732127801321A703B1C17331B78002BC1D0244A244B101CE0
:40024000191C00F0F7F9234BC02292021A60224BEE2212021A60214B10221A60204BC022D2011A601F4BD82212011A601E4B992212041A601D4B802252041A601C4B9922AD
:4002800012041A601B4B03221A601B4B02221A601A4B1A4A1278D2B202210A43D2B21A70164B164A1278D2B206210A43D2B21A70FFF70AFF00F0FEF9BD4606B080BDC0461D
:4002C0001C700F40E03E0000F43E0000003F00001C3F0000000001400C00014000000440080004400803044000500F4008500F4030500F402000004000800F4000700F40C9
:4003000010B5064C2378002B07D10548002802D0044800E000BF0121217010BDE000002000000000A00B000008B5084B002B03D00748084900E000BF07480168002903D0AA
:40034000064A002A00D0904708BDC04600000000A00B0000E4000020C80000200000000080B500AF024B01221A70BD4680BDC046FC00002080B500AF00F054FA324B181CE7
:4003800000F09CF962B6314A314B101C191C00F075F8FA235B00181C00F092FB2D4A2E4B101C191C00F06AF8FA235B00181C00F087FB2A4B181CFB2100F060F8322000F0B2
:4003C0007FFB264B181CFB2100F058F8FA2000F077FB224B181CFB2100F050F8322000F06FFB1E4B181CFB2100F048F8FA235B00181C00F065FB1A4A1A4B101C191C00F066
:400400003DF8FA235B00181C00F05AFB164A174B101C191C00F032F8FA235B00181C00F04FFB134A134B101C191C00F027F8FA235B00181C00F044FB0F4ACF239B00101C5B
:40044000191C00F01BF8FEE761030000A40B0000F60E00009C1A0000EF0C0000E43D00008C270000970800002430000063050000883500001D050000A83A000080B584B03E
:4004800000AF78600A1CBB1C1A803B1C0E3300221A801CE0134B1B783A1C0E32391C0E3109881180002B12D03B1C0E331B887A68D3181B78181C00F0F3F93B1C0E333A1CEB
:4004C0000E32128801321A80064B00221A703A1C0E32BB1C12881B889A42DBD3BD4604B080BDC046FC00002080B500AFFEE7C04680B586B000AF254B7B61254B3B61234B5F
:400500007B61234B3B6132E03B691B68FB603B695B68BB603B699B683B6000237B600CE0FB681A68BB681A60BB680433BB60FB680433FB607B6804337B607A683B689A4251
:40054000EED13B69DB683B6000237B6008E0BB6800221A60BB680433BB607B6804337B607A683B689A42F2D13B6910333B617B695A1E9341DBB27A69013A7A61002BC3D10F
:4005800000F0D6FAFFF7F6FEFEE7C046010000000441000080B582B000AF00237B600FE07B68032B04D80E4B7A689200D35800E00C4B0D4A796889008B507B6801337B60B3
:4005C0007B682F2BECD9FFF7BDFD084B00221A608023DB0501221A60BD4602B080BDC04600000000E904000000000020C000002080B582B000AF786039607A683B68101C1D
:4006000000211A1C00F0C3FABD4602B080BDC04680B584B000AFF860B9607A60F968BA687B68081C111C1A1C00F0A8FABD4604B080BDC04680B586B000AF78603960002334
:400640003B6100237B612EE07B699B007A68D3181B68BB603B1C0F33BA681A70BB68FF229343BB6017E03B695B003A68D3181B781A1CBB68D3183A69520039688A18527811
:400680001A703B6901333B613B1C0F333A1C0F321278013A1A703B1C0F331B78002BE2D17B6901337B617B69062BCDD9BD4606B080BDC04680B500AFBD4680BD80B582B07D
:4006C00000AF786000F04AF87B68181C00F008F8032000F011F800F037F8BD4602B080BD80B582B000AF7860024B7A685A64BD4602B080BD0000002090B585B000AF021CD9
:40070000FB1D1A700E23FB603C1C0B3400F021F9031C23700A4B0A4A11680A4A1140FA1D1078FA68041C9440221C0A431A603B1C0B331B78181C00F010F9BD4605B090BD1D
:4007400000E400E0FF3FFFFF80B500AF024B02221A60BD4680BDC04600E100E080B500AF024B02221A60BD4680BDC04680E100E080B500AF0E4B0F221A70002000F080F9CC
:400780000020032100F012F90A4B0020191C00F0E7F800F09FF800F063F800F071F8064B02221A70054B00221A70BD4680BDC04682000F403509000081000F4080000F4067
:4007C00090B583B000AFFC1D00F0C3F8031C2370114B114A1278D2B220210A43D2B21A700E4B0E4A1278D2B210210A43D2B21A700B4B0B4A1278D2B210210A43D2B21A706B
:40080000FB1D1B78181C00F0A8F800F01DF800F023F8BD4603B090BD92000F4091000F4090000F4080B500AF064B1B78002B04D1FFF79EFF034B01221A70FFF7C1FFBD4687
:4008400080BDC046FD00002080B500AF002000F001F9BD4680BDC04680B500AFBD4680BD80B582B000AF054AFB1D12781A70FB1D1B78181CBD4602B080BDC04661000F40A8
:4008800080B582B000AF054AFB1D12781A70FB1D1B78181CBD4602B080BDC04660000F4080B582B000AF021CFB1D1A70C046074B1B78DBB21A1C04231340F8D0044BFA1DF5
:4008C00012781A70BD4602B080BDC04661000F4042000F4090B583B000AF01E0124B1B78124B1B78DBB21A1C20231340F6D1FC1D00F02FF8031C23700D4B0D4A1278D2B204
:4009000001210A43D2B21A70094B094A1278D2B201218A43D2B21A70FB1D1B78181C00F01CF8BD4603B090BD52000F4060000F4092000F4080B500AFBD4680BD000000004D
:400940000230800804D0C0460138FDD1C046C0467047EFF3108072B6704780F31088704780B584B000AF021C3960FB1D1A7080239B05FB60FB1D1B781F2B02D9002000F017
:4009800095F8FB1D1B7810339B00FA68D3181B68BB60FB1D1B7810339B00FA68D3183A681A60BB68181CBD4604B080BD90B587B000AF0A1CFB1D011C1970BB1D1A70BB1DB0
:4009C0001B78032B02D9002000F070F8FB1D1B781F2B02D9002000F069F8FB1D1A7803231340DB0006337B613C1C1334FFF7B1FF031C2370FB1D1B789B08DBB29B001449C5
:400A00005B181B68FB607B690322111C99400B1CDA43FB681340FB60BB1D1A787B69111C99400B1CFA681343FB60FB1D1B789B08DBB29B00064A9B18FA681A603B1C133381
:400A40001B78181CFFF789FFBD4607B090BDC04600E400E080B582B000AF021CFB1D1A70064BFA1D11781F220A400121081C9040021C1A60BD4602B080BDC04600E100E0A7
:400A800080B582B000AF021CFB1D1A70064BFA1D11781F220A400121081C9040021C1A60BD4602B080BDC04680E100E080B582B000AF021CFB1D1A7001BEBD4602B080BD76
:400AC00080B582B000AF786008E00C4B1B68181CFFF736FF7B680A4A9B187B607A6880231B029A42F1D8074B1B687A685343181CFFF726FFBD4602B080BDC046DC0000204B
:400B00000080FFFFD400002080B582B000AF021CBB1D1A80BB1D1B88044A12785343181CFFF70EFFBD4602B080BDC046D800002070B50E4B0E4D0024E81A85101E1CAC42D1
:400B400004D0A100725890470134F8E703F0C8FA0849094A0E1C541AA5100024AC4204D0A300F05880470134F8E770BDEC400000EC400000EC400000F440000010B500232C
:400B8000934203D0CC5CC4540133F9E710BD00B58218031C934202D019700133FAE700BD00000000AAAAAAAAAAAAAAAAAAAAAAAAAAAAAAAAAAAAAAAAAAAAAAAAAAAAAAAA64
:400BC000AAAAAAAAAAAAAAAAAAAAAAAAAAAAAAAAAAAAAAAAAAAAAAAAAAAAAAAAAAAAAAAAAAAAAAAAAAAAAAAAAAAAAAAAAAAAAAAAAAAAAAAAAAAAAAAAAAAAAAAAAAAAAAAA75
:400C0000AAAAAAAAAAAAAAAAAAAAAAAAAAAAAAAAAAAAAAAAAAAAAAAAAAAAAAAAAAAAAAAAAAAAAAAAAAAAAAAAAAAAAAAAAAAAAAAAAAAAAAAAAAAAAAAAAAAAAAAAAAAAAAAA34
:400C4000AAAAAAAAAAAAAAAAAAAAAAAAAAAAA955750DAA656A56A595AA6AAAAAA952B741EA555A9365556A566A559552AAF06E686E8B2D4B555555555552955F06BC875689
:400C800047554B5555565555492AF853F143D543AD25AD52AD52AAA457E40F7A09DCA1B6A536B255AA952A53EC0CFA435D9456D52AB554AAD51257BC09DE922BB514B6D4BE
:400CC000A56D52955493BCA19D72866DA52AB6AA53566924A779891AEE514B754A55AD54A55AA49379CC296EB2A29AD6AA55556A9549473DA628CDACD29556AD5552AAAA4C
:400D0000A94739CD4A53356AA955569A69AC654B196D66A534AAD5565334B2D5534D32CB4B2D25B49AD3492DB4A5B496CB2CAB4B4ACB4CB25B4B4D34DA4B4B4B4D2CB4ADF6
:400D400025B4AD269ACB496A5B4B2D25A66D25AD25B4965B492DA6969695966926B2CB52D8D4B4D25B4B4B4965B49A696D256D2D2B4D2B2CAB2D34A9A59A4964D6D2D25B3E
:400D80004B4B692B4D692D2CD34D34AD25A5A5B492DB4B4B4B2B4B496A5B49A6969A64B69A69A569A59AB492DA4D365A4D25B6596535554AB55552AD555555555555552A3E
:400DC000D5554B355555555555555253AD949AB552AAD5A55554923EE8A2D74A955D592AB4A05FF404FD50A76D455B2A213FE40BF8A0EBCA4BAD14925FA832F941D7532733
:400E0000552A489FAC16EA51AB5555A555223F542D74A55AAAAAAAA9217EA16B54AAD35555554913F512DAA5556AAAAAA9427E985B552AAD555555490BF4A2DAA9555AAA47
:400E4000AAA9427F15175552B55A9555490FE948DAAA95AB54AAAA21FD291B5552B56AA955485FA5456AB4AAAD5554AA23ECA94D6AA955AAAAA948BD5552B55552D56AA5C8
:400E8000522BB552AAD552AAAD555529555AAD554AAAAAB55554A5555AD5552AAAAAB55554A55556B5554AAAAAAD55554A55556B5554AAAAAAD55554A95555AD554AA55A3B
:400EC000AAAAAAAAAAAAAAAAAAAAAAAAAAAAAAAA9A6A6AAAAAAAAAAAAA9A9AAAAA96969AAAAAAAAAAAAAAAAAAAA55555AAAAAA95556AAAAAAAA94A6AD6AAA553555556AA82
:400F0000AAA554956B6AA552AAD55555555555292D6D654AA5AAD555555555294ADAD9549556AB52AAAD554A496D6D5292B55AAAA5AAAAAA524DB5B254AAD5A95555AAA565
:400F4000524B76AA455AD554976A94AD5411FF806DEC05ED542FA5256C02FF0177E01F6A0BF452BA8217F80FBC03F290FE293E8524AFE066F81ADD075E85574422FE207FBE
:400F8000883F4A1BB51556807FA80FDC06BE4A5D9495909FCC0F6D056F2936AC94A88FEA06BE48B6B4AAB54A491FB422F6C296DAA955AA442FF482AF5922D76A52AAA439BA
:400FC000ED245AEA94AD6B4A5528BBCA8C6B668AAB5AA94AA96B9952AB55554CD55554AAAB55552AAB3554AAAAAAAAAAAAAAAAAAAAAAAAAAAAAAAAAAAAAAAAAAAAAAAAAAB0
:40100000AAAAAAAAAAAAAAAAAAAAAAAAAAAAAAAAAAAAAAAAAAAAAAAAAAAAAAAAAAAAAAAAAAAAAAAAAAAAAAAAAAAAAAAAAAAAAAAAAAAAAAA9A69AAA69A5A69A9A9A69A5555A
:401040006965A6965A5965555555555555555555555555555555555555555555555555555555554AAD5952AD5554B555555555552AB5554AAD554AAB555555555294EBA56D
:4010800015AD54AAAB55555554AA49EB928D6D2A55AAAAAAAAAAA4A5E7452D6AA5556AAAAAAAA95293DB14AD6952D555556AA9554A4ED64AAD552AAD4AAD5555554A555A7D
:4010C000AD5554AAAAAAB5555554AA5556AD5552AAAAAAAD555552A95556AD554AAAAAAAAD55554AA54B55AD552A9556AAAAD554AA94AAD5AB52A955556AAAAAAAA952AA67
:40110000B5AAAA95555556AAAAAA954AAAB5AAAA5555556AAAAAA9524D6D5655555555555AAAA954A4B5B5552AAAAAAAAB555554A926B6AB2A959AAA96AD4AAAAA44BF3490
:401140001ADA952D5656AAA9955097F121F4D0EA726AB534B4A849FCA0F564B2B4B55A69555224FCE0E5D1A56AA6AB4B4AAA127EB0AAE54B53555AAA695488FDA18DCC96AD
:401180005AAACB552AA9227DA30EB8B1AB4D5565554C44F7891CEAA32D596AAAAA54917B949A75469AACD555552A44F79454EB2A556AAAAD552A4965B5AA9555555555562A
:4011C000AAAA54A556AD6AA952AAAB556AAA952A555AD6AAA52AAAAD5AAAA554A9555AD6AA94AAAAB55AAA9554A9555AD5AA552AAAAB555552AAAAAAAAAAAAAAAAAAAAAA14
:40120000AAAAAAAAAAAAAAAAAAAB2B29B2A6A69A599A6936656656595556965954D6595569555555959555555555555555555555555555555555555555555555555555556B
:4012400055555555555555555555555555555555555555555555555555555555555555555555555555555555555555555554AAAB555554AAAB55555555552AAAAD55554A63
:40128000AAAB555555554A92CCEE6652555AAD5AA554AA498EE6E63132B39AD554AA54A339D9CCA4A66B56B2AA552A4CCF67314A55AB5AAAA52A5266E733314AB5AD5554D5
:4012C000A94A4CDE6E3252AB36AD54A9529339DACA52956B5AAAA94A4ACD76B294955AD6AAA952A4A73AD552A5555AAD5552A4999B5AAAA552B555AAAAA949555ADAD4A98F
:401300002AAAB5AB54A529556B5AD4A92AAAD5AD54A525556B6AD4A94AAAD6AD52A529556B5AAAA54AAAB5AAAA952A555AB56AA54AAAB5AAAA954A9335AD5552AAAAAAADD3
:401340005555529499B6D32A5555AAAAAB554AA524E7B2919AD6652B5ACA9555485CF712339D514D6D652AAAC4177B8918F72863AEB18B35620BBDC416779431CF5945350D
:4013800065033DE50C6F58A32EE99455A6133DCA18E79A519B734A2ACA4B3DC618E759519ADAAA299513BCD494ABACA54D75A528C62E7B8C29AE74A52D6D98A514B9EE30F5
:4013C000A59DD314B3AD5492496F9CC28CEB9A52AB5AA949139ED94A2AB5AAAA6AAD529226F3D31469AD595555AAA5245AEDA52956AD54AB55554A48E7AD295355595555C5
:4014000055555555555555555555555555555555555555555555555555555555555555555555555555555555552AAAD5555554AAD555555555552A966AD554AAAAAAAB55EF
:401440005555552A92CE73552A555AAAAAAAAAAAAA5259CEB5492A6735AAA665AAAA52265DCEB2492AD6B5554CAB35549231CF734A514D6B56AAA5555554918E775A528C0F
:401480006AB6AB552AAA99524CB3BAAA9465556B56A99554CA94659DD554A52AB5AAB54D2AAA95259AE734CA94B3566AAAAAAAA9524CE739654AAAAAB5555555555292AB7C
:4014C0005CD54AAAAAAAAAD35555534A92AD6CAAA65969AAA9A6AB2B2A9A92D3565A5555555659696A565996925B4B5659554D5534B4B5A4D4CB4B2D2CD4B4B2CB4B2AB2F6
:401500009AD324B69B29A692CB69595592DA599692DA9A52CB69695935353692D496D695A4B4D4B2C96D25B4AAAAAAAAAAAAAAAAAAAAAAAAAAAAAAAAAAAAAAAAAAAAAAAAF9
:40154000AAAAAAAAAAAAAAAAAAAAAAAAAAAAAAAAAAAAAAAAAAAAAAAAAAAAAAAAAAAAAAAD5554AA952D55AAAAAA555556AAAAAAAAAA54AAD55AAAA955555556AAAAAAA9549E
:40158000AAAB56AAA955555556AAAAAA95492D6B6A952AAAB55555556A9552926D6DA5525556AAD2AB55554AA44B76EA292AD6D2A556B6A52954A2F6BA2516D6D294B5B612
:4015C00095254AA4DD752515ADAA92AB6D55152AA4BB5D25156B6A52AADB55252A927ADD148D6B554959B6AA4A529376E9285AB75292D5B5549494AEEBA2515B5D2A4B56D0
:40160000D5522925DDD9144B6DAA92AB5B529222BEEE4489B6EA9495ADAA92225F6F4888B6DD5294D5B54A20B7BDA244ADB6AA52AD6AA4886F7748916B6D52955AD54A22FE
:401640006EDD51255ADAA55556AA94915DDB492556D5952AAD555292B6D692A55AB54AAAAAD52A9556AB4AAAAAAAAAAAAAAAAAA5556AAAA9556AAAAAAAAAAAAA95555AAAE1
:40168000AA5555599999A6AA5555555555555555555555555555555555555555555555555555555554AAAAB5555532AAAB555555555554A52AD739A54A996AAB5555555554
:4016C00052A52639DCE5294AAB56AAAAAAAAAAA524C73B9CA94A555AD6AAA55555552918E77399494AAB5AD5554AAAAAA52335CEB54A2995AB5AAAA9555554A4A739D669AB
:401700004A53356B555532AAAAA52A6B5ACD2A54B355AAAAA555556554CCD55995554D555555555555555555555555555555555555555555555555555555555555555555D3
:401740005555555555555555555555555555555555555555555555555555555555555555555555555555554D332CC6B394E31ACB31CCCD31ACB2A6AAAAACA7319CC672A9A1
:40178000AAAA669A9A6AAAAAAAAAAAAAAAAAAAAAAAAAAAAAAAAAAAAAAAAAAAAAAAAAAAAAAAAAAAAAAAAAAAAAAAAAAAAAAAAAAAAAAAAA9555AAAA955AAAAA96AAAAAAAAAA30
:4017C000A529ADAAA9555565555556AAAAAA9552539D5A54AAAB554AAAD555555554A4AD6D54A965AAAAAAAAAD55554AAA526AEAAAA55555555555AAAAAAAA55256AD5A50C
:401800005555555555555AAAAAA95552AAAAD6AAA552AAD55555555555554A9555AD56954AAAAAD555555555554AA5555AD55552AAAAAAD55555555552A55556AD5554AA99
:4018400055AAAB5555555552A955556B55552A555AAAAD55555552AA55555AB5552A9555AAAAAAAAAAAAA954AAB56AB2AA555555AAAAA955555555555555555555555555F8
:40188000555555555555555555555555555555555555555555555555555555555555555555555555555555555555555555555555555555555555555555555555555555320B
:4018C000CD2ACAAAD4AD5352D52CD2CD532CB2AAAAAAAAAAAAAAAAAAAAAAAAAAAAAAAAAAAAAAAAAAAAAAAAAAAAAAAAAAAAAAAAAAAAAAAAAAAAAAAAAAAAAAAAAA55556AAAE6
:40190000AAAA55556AAAB554AAA54966B5AB32A52AAB56AACD32AA99528D39CEB4A51955AD59AA9655669A5289573B6AA528CAB5B5554AAAAB55552922ABB6DAA494A5AB74
:401940006AB2A9555AAD52A9249675DB529252B5AD5A94AAAB5AAAA5294A4D75D6A524AAB5AB54A9555AD5A952A554A4D5D6D52A4AAAD5AAAA55556AD554AA9554A4B56D69
:40198000AAA54AAAAD555554AB55AAAAA95554A926AEB5552A5556AAAAAAAAAAB5555554AAA9495AD6B2AA5555555AA5555555555555555555555555555555555555555568
:4019C000555555555555555555555555555555555555555555AAAAAAAAAA555294AEF4A8A9AB5552AAAD552AAB55555555555554AA524BEBC50AADD54A4B5AAA9555AB5246
:401A0000AAAD554AAAAAA924AAFD7048DEBA145ADB4A2AB6AA9555B54AAAAD52A95652495FCF022DEDA143ADD2516B6A94AB5B2A556B52A55AAA494956F9E062FAA854BD27
:401A4000592557552A56D552AB56955555552AAA92955F97031F5542ABD545356CA9556AAA56AAAAAAAB2AAAAAAAA552AA57CB06ABAA92AB6A92AD5952AD5554B5555555FE
:401A800055555555555552A9557658AA75552AAD552AAB552AAAAAAAAAAC0000AAAAAAAAAAAAAAAAAAAAAAAAAAAAAAAAAAAAAAAAAAAAAAAAAAAAAAAAAAAAAAAA555556AAD8
:401AC000AAAAAAAAAAAAAAA9AAAAAAAAAAAAAAAAAAAAAAAAAAAAAAAAAAAAAAAB4B54AAAAAAAAAAAAAAAAAAAAAAAAAAAAAAAAAAAAAAAAAAAAAAAAAAAAAAAAAA96AAAAAAAC2D
:401B0000AAA5555AAAAAAAAAAAAAAAAAAAAAAAAAAAAAAAAAAAAAAAAAAAAAAAAA96AAAB2AB4AA95556AAAAAAAAAAAAAAAAAAAAAAAAAAAAAAAAAAAAAAAAAAAAAAAAAD2AACABA
:401B4000AD2AAA569AAAAAAAAAAAAAAAA5AAAAAAAAAAAAAAAAAAAAAAAAAAAAA96D2AACAACAA95555AAAAAAAAAAAAAAAAAAAAAAAAAAAAAAAAAAAAAAAAAAAA95AAAAB2AAA920
:401B80005555555AAAAAAAAAAAAA95A96AAAAAAAAAA6AAAAAAAAAAAAA66D2AB52D54AA55596AAAAAAAAAA9AAAA96569AAAAAAAAAAA69AAAAAAAAA9B2AAD54D2A955555AAE1
:401BC000AAAAAAAAAA96AAA9AAAAAAAAAAAAAAAAAAAAAAA9B4AAD4AD4A5554D555AAAAAAA6A9A59555555696AAA56965595A695555AAAAD2AAA9534B5555AAAAAA555555F9
:401C000055555555555555555555555554B6955AAAA954AAAAB55555555555555555555555555555555555555556A5AAAAA9552AAAD5556555555555555555555555555504
:401C400055555554CD6956AAAAA54AAAAAD555555555555555555555555555555555552AD9556A9AA954AAAAAD5555555555555555555555555555555554AB6956AAAAA513
:401C800054AAAB5555555555555555555355555555555554AB6955A96AA54AAAAB555555555555555555555555555555554ADA95AAA6A9554AAB555555555555555555557B
:401CC000555555555554AAD5556AAAA94AAAAAD5555555555555555555555555555554B5A96AAAAA94AAAAAB555A95555555555555555555555552AB5556AAAA94AA95AAD6
:401D0000D555555555555552D55555555555555595AAAAAA92AAAAAB555555555555552AACAAD555554AAD55555AAA94AA55AAD5555555554AAB2AAAB355555552D5555589
:401D400055554A95556AB5555554AAAAAAAAAAAAAD5552AB5555555554A55555AAD55554D2AAAAAAAAAAAD554AAD5A55555554A95555AAD555554AAAAAAAAAAAAAB5553583
:401D8000555555554A554AD5AB55552AAAAAAAAAAAAAAAAAAD5AA5555552A554AD5AAD554CAAAAAAAAAAAAAAAAAAD5A5AA5554A552AD5AAD552AAAAAAAAAAA5AAAAAADB5F9
:401DC0002AAA952A4A56B5AD552AB4AAAAAAAAA5555556ED4AAAA8AA92557556B549B552AB2956A92B6A55DE915AA92AA24AED55AD4AB692AB4956A4AB6A96FA455D48950C
:401E0000492DD955B54B6A4AB54955255B555FD05AD509548ADD92DB555D4A56A55292AAD56FE82DB5095422DD92BAD55B55552954496A96BFD22DB4855115B52ADAD6AB21
:401E400056AA952452A55B7F21DBA42A84AD649AD6D55BAE9529490A556DFD05FD48550AAC92B5AB55BDB5294A9212AD77D05FE92494569295AD6A6BDB5A4A5520956BFC53
:401E80000BDEA252532AA25B6B26BBD6A52A9241577F407EE91524B55226DB52AEED5A52A52125BFE01FF216452AD50ABBA8AEF55AA4AA5025BFE01FF40E8552D512B7A8B1
:401EC0005BF536A52A482AFF807FD0590B55542D774177E954AAAA04ABFE03BF21A09B55506DFA0AFE969255A822FFC06FD1342175AA0B6FA0B7F2A94A56289BF80EFD06E2
:401F0000845CAB4596F82BFD1C95268A4BFE037E82E025D6A2B2DE897F4B49496492FF80EFC07822E96A5A5F42B7E2D2A4B252BFC0DBE81C81745CAD4BE137F164C92C4A0A
:401F4000BFE076F40E41591E5A95F0AFF0D9522A4ADFC07DF01C922D2E9657A4AFF0D5249515FF01F7905942597A5557926FE2AA42692BFC07FB01B40AA7C5A97A8AFF159F
:401F80003445525FE03FE80EA0566CADA3D44FF8A9911555FC07FE40E4256B0BDA5C95DF4A4C4A52FF00FFD02914B652BB5592BDF4A290B2BFC037F81A216E1A3BB322DE2C
:401FC000F96920AADF803FF40A45AA563BCAA53DF549484AFF007FE8140BD45C37AD12BDEAD2124FFA00FFC0A80F68B2BB5C4ADF4DA1126FF0077F05203D8B4D6AF22BED3B
:4020000036442BFE0077F82803BA5957571577C5D2115FF005FF09403ACB4B7568ABDE5A442DFE0077F05403B9326EAE897DD35208FFE006FF03105E968BB5722FBC6A4425
:402040004FFC00DFE0A407B1726D5D257F934822FFC01CFE0680DD1E2755D437F8E8882FFC01BFC0D00ECBA5753A46FF1A9107FE00D7F03405D4B96E96A2F7CB2244FFC01D
:402080001AFE0680EC5D1BCAE43DF55090BFF0073F81A02F474B72B4977CEA1217FC01AFE0A80BA9E37A2D85FB968493FE00E7F01C0369795F45517FA6A128FF8035FC0B28
:4020C00000EC3B2FD1645FF2D0493FE00E7F03406D1B4FE9341DFCD40C2FF8057F80E02D8756FC950BFD5A032FF8055F81D01B0BA6FD2A17BD74052FF802BFC0D01746C94A
:40210000FD5286EF5E012FFC019FD0380752E2DFA522F75E8097FE0147F03A0392E95FAA837BAF202BFE018BF81C03A4EA6FA9A1BBAF4027FE014FE81C06C2E97EA9837D8A
:40214000AE812FFC031FC0720783D1FD4945F6BD081FFC051FC0701745D2FD4A46EEFA083FF0143F80E0368793FD2217DDD8247FE0187F81A03C2F0BFB405BDBF041BFE0E7
:4021800040FF0340F05E8BFA903BB7E049FF80A1FC0D01E0BD1FDA407BB7A053FF0143F81C0781F15FD281DBBE812FFC050FE0701B05F1FE920BB7F402BFF0183F81A079D6
:4021C0000DCBFC90376FD015FF80A1FC0D01E83D4FF4416F5F4097FE0307F03407C0ED3FE0837ED7017FF00C1FC0E03705E2FF8095F5E902FFC060FE0680F42EABFE0837A7
:40220000DDB00FFE0143F81C03E07A5FF804BEFCC03FF80C1FC0E01F03D1BFC09377ED00FFE0407F81A0782F477F022DF76807FF0143F81A03D06E5FF044B7DF203FF80C2C
:402240000FE0681E83E17FC8157DDA01FFC0A0FE0700F42F47FC212DF5F00FFE0307F03407A17A3FE2096FD5C07FF0207F81C03C17C9FF042B7DAE03FF8140FE0D01F0378F
:402280002DFC0A37BAE20FFC0C0FE0700F05797FC08ADF9740FFE0507F03807C0BCBFC824BFAB40BFF0203F81C07C0BD2FF084AFD5D03FF0181FC0E01F02F2FF82157F4E82
:4022C00002FFC0C0FE0701F01BC7FC08ABF5A907FE0503F81C07C07CBFE0153FAAA0BFF0203FC0C07C0BD57F8055FB5213FF0283F81C03E05EAFF202AFEAA11FF8140FE029
:40230000701F01F4BFC085BFA541FF80C0FE0701F01BADFC20ADF5582FFC0607F81C07C07ABFE2055FCCC45FF0301FC0E03E03797F80957F4A82FFC080FF0380F417ABFCF1
:4023400080ABFA5427FE0503F81C07C07CAFF04537E9A23FF0180FE0701F01F2FF8052FECA88FFC0607F0380F80DCBFF0145FE5503FF0280FF0641F01E97FC0517FC681F4E
:40238000FC0603F81C07C0BCBFF01437F2D01FF8180FF0641E81F0FFC0A0DFE540FFC0603FC1907417A6FF0185FE9A05FF8101FE0681E82F2FF81457F5505FF80C07F834B5
:4023C0000782BC7FE0286FF290BFF0181FC0E03D05E3FF8091BFC681FFC0A07F0380F41797FE0246FF2907FF0181FC0E03E05E3FF80857FA521FF80C07F0380F81757FE083
:40240000216FF2487FE0301FE0C03E0AE5FF8089DFC942FFC0607F0380F4174FFC0455FE924BFE0301FE0C03E0AD6FF8049BFD112FFC0607F0380F41757FE01277F124BF29
:40244000E0303FC0C07A13ABFF00A57F9449FF80C07F0381E82B9BFE014BFD2915FF0181FE0643A22EAFF8122FFA251BFC0507F8190DC0BABFE0492FF24C9FF8080FF0345F
:402480001D81B5FFC050BFE2547FE0281FE0683A136BFF01457FA152FFC0207F81A0E84BAFFC090BFE2549FF0141FE0683682EBFF8091BFC2B23FE0181FE0703A42EBFF0FF
:4024C0004457FC2B07FE0303F81D06C0DABFF0415FD26C87FC0683F81C2720DAFFC2416FE4D40FFC060FF0342A92D5FFA2035F69A817FC0C0FF0382B12B5FFA2036EE9AC8B
:4025000007FC0703FC1886C2B57FE2055DEAD203FF0183FC0E05A8B57FE240BBD5D083FF00C3FE0603B22D5FF280AFBAD041FFC0347F80C4B61357FD4017F7508AAFF803F0
:40254000A7F00D2AD06B7FE081BFD20AD2FF80727F01A5581757FA441FF248AD4BFC01E7F00E9340BC6FF840FF8A49B52BF403E7E01E9240F97FC1257F4266EA05FE01FAB5
:40258000F20E42A0BE97F128DF42EA6C80B7F01F97C0720D4AEA7F1352EA56CAA25457F03F47A0780B25E8FE4A91FD2AD2A484AAFF81F2BC07416A2E95F4556FA9552954A9
:4025C000A41775F81F4B50390B49B4DF92C976A6A9555222B5AADF22F52A4589525D96F4AD4ED14B6A4A5496A5AB577E06D4D20D49AA5D57D5513D91555A554A56AB4D564A
:40260000AA97A23696A0F44B26E97A9B42F2554D594AC9696AAAD5552B555A95556915A955572B69552D64AD55A954AB55552D5552AB552AAD55552D2AAA955AAAD555552C
:40264000555A955554AAAAAAAA96AD5555554AAD54B2AAAAAAAACD4AACAACD352D55554AAAAAAB4D34B2CAAAAB4D2AAAAB35534CB4AAAAB2AAAAB52B2AAAAAAAD5532ACA2B
:40268000AA6AAAAAAAAAAAAAAB2AAAAAAAA9AAAAAB4AAAAAAAAAAAAAAAB2D2AAAAAAA65AAAA9AAAAAAAAA596AAAAAAAAAAAAAAA9AAAAAAAAAAAAAAAAAA6AAAAAAAAAAAAA38
:4026C000AAAAAAAAAAAAAAA5565555556555AAAAAAAAAAAAAAAAA6AAA9AAAAAAAAAAAAAAAAAAAAAAAAAAAAA9AAAAAAAAAAAAAAAAAAAAAAAA9AAAA5A696A956AAAA96AAAAE8
:40270000AAAAAAAAAAAAAAAAAAAAAAAAAAAAAAAAAAAAAAA55AA55AAAAAAAAAAAAAAAAAAAAAAAAAAAAA5AAAAAA9AAAAAAAAAAAAAAAAAAAA9AAAAAAAAAAAAAAAAAAAAAAAAA24
:40274000AAAAAAAAAAAAAAAAAAAAAAAAAAAAAAAAAAAAAAAAAAAAAAAAAAAAAAAAAAAAAAAAAAAAAAAAAAAAAAAAAAAAB2AAAAAAAAAAAAAAAAAAAAAAAAAAAAAAAAAAAAAAAAAAD1
:40278000AAAAAAAAAAAAAAAAAAAAAAAAAAAAAAAAAA6A6AAA6A6A6A9A96A670CF18F0E719E1E30E718E38E1C71CE338CF0D3919CCE2E4E1C78E670F170E3A1E3C3C38787885
:4027C00078E1E1E1E1C783C7878F0F1D1C3C3C3C3C78787870F8E1D1E1D1C7270F270F2B1E2A3E2E1CAC3C6C3C6C38DC38D878D878B871B8F161E361E361E361E351E351CD
:40280000E391E351E391E391E391E391E1C8F1C8F1C4F1C572C971B19CB19E34C6CB471C9CAAC7274727171A67271C3A395C6966656593A38E5638F1B1970E58E8E3C68EEE
:402840003A38E3638E8E3938D2E3534E3538D8D54B4D3534E3534D2D3474B1CACD2C72D2C7871E1C7878D1E2C78B2D2CB4D2D2CB8D34D2D35387471CACB2D3471D2C72B112
:40288000CAE32B8CCE3538CC71D1CAD2D2D1C7472B1CAACAAAAAAAAAA9CAAAAAAAAAA9AA69C71AAAAA69A699A696A6969A59A9AA69A596565955556596596565659555558A
:4028C00055555555555555555555555555555555555555555555555555555555555555555555355555555555555555555555555555555555555555555555555555555555B8
:40290000555555555555555555555555555555555555555555535555555555555555555555555555555555538D54D555534D38E4E1E1E1E1C9E1E2CC72B31C9CC6B19E2797
:40294000871C3CE465E1C3C7870F1E1C3C3878F0E1E3C3878F0E1E3C3878F1E1C3C38F0E1E3878E1E3878E1E38F0E3C38F1C3C71E1C7871E38F0E3C38F0E3C38F0E3C38F32
:402980001C3C71E1C7871E1C70E3C38F1C7871E3870E3C78E1C7871E1C7871E1C3C78F0E1E3C3878F0E1E3838F0F1C1E393C3878F0F1C1C7838F0F1C1E3838F0F1E1C38737
:4029C0008F0F1C1E3938F071E0F389C729C7278D31CB338E638E478CC71C8E398E599C719C731C72396671C671C4F1C8E38CE398E398E391E589E38CE38CE394734A71C953
:402A0000B1CAB4D278C71B4AB1C71AE31E1CE1CE1CD2AE38E2D8B8E3878D8B871E1E1E1E1C5C78747471B271AA72AB19A70E65A731D1CA68E6727239393C395598E38E6319
:402A40009398E1D4E1CD4CE52E351E1CAD1CAACC71D1D1C9D1C7171B8D47331E2E331C8E5C9C6E271D0E3C3E38787878E1E351C7478E878E0F1E1E1C71C663C3C393C1E38F
:402A8000C3E1C68F8C3C3C70F0F1C1E383C787870F1E1E1C3C70F8D0F1C6E3199C6730F1E1C5C38F0F0F1E0F1C1E1E1C3C3C70E9C3C3878F0F1C3C387870F1E1C3C7870F7D
:402AC0000E1E1C3C3C3C7178E271C666738C7332ACC9E35383E323C786E3878719E3239B1C70F1C3C387878E1E1E3C387870F0F1E1C3C3C3C787870F0E0F1C8E3C1C9E1CA3
:402B00009C787878787878E2B8E1CE398E1E0F0F0F0F0F0E3B0E35C6638F0F0E1E1E3C38F0F0E1E3C387870F0F0E1E1E383C78787331B8CCB8D4733271E1E1E1C3C3C7871D
:402B400087870F87178713C707878F0F1C1E387871E1E1C3C3A387870F0F1C1E3C3C38787878E271CE647338B8E0F0F0E1E3C3C3C3C387C70D8F187332B958E1E1E3C3872A
:402B8000878E1E1E1C3C7870F0F1E1C3C38787470F0F1E1E1C3C393C3938E63938D91C7473387870F0F0F8E270F1B87238F078F0E1E1E387878F0E1E383C7870F0F1C1E3D8
:402BC000878787870F0F0E1E1E1C3C393C7078E871CC72E3993C7078F870F0F0F0F8E078E278F0E1E1D1C7871E1C3C3C3878F0E1E1C3C7870F0F0F1C3C3C3C387878F0F088
:402C0000E1E1E3C387878F0F0E1E3C387870F1E1C3C7870F0E1E3C3878F0E1E1C3C7870F0E1E3C387870F0E1E3C387870F1E1C3C3878F0E1E3C387870F1E1C3C7870F0E117
:402C4000E3C3878F0E1E1C3C7870F0E3C3C38787471E0F1C1E3C3C38787878E8E1E1E1E1C3C3C7870F0F0E1E3C3C3878F0F0E1E3C3C387878F0E1E1E1C783C70F0F0F0E14B
:402C8000E1E1C783C787870F0F0E1E1E3C3C3878787870F0F0F1C1E1E3C3C3C38787878E1E1E1E1C3C3C7870F0F0F0E1E3C3C387878F0F0E1E1E3A3878787871E1E1E1E1CC
:402CC000C3C7878787170F1E1E1C3C3C38F0F0F0F0E1E1E3C3C387878F0F0E1E1E3C38787878F0E1E1E1E1C7878787870F0F0F1E1E1C3C3C3C787870F0F0F1E1E1C3C3C7FA
:402D000087870F0F0F1C3C3C3C3C38F0F0F0F0E1E3C3C3C387878F0F0F0E1E1E3C3C38787870F1E1E1E1C3C3C787870F0F0F1C3C3C3C3C7470F0F0F0E1E1E3C3C387878F8E
:402D40000F0E1E1E3C3C3C387878F0F0F0E3C3C3C3C38B8F0F0F0E1E1E3C3C3C387878F0F0E1E1E3C3C3C3878F0F0F0E1E1E3C3C3C387878F0F0E1E3C3C3C387878E8F0EB3
:402D80001E1E1E387878787870F0F1E1E1E1C3C3C787870F0F1E1E1C3C3C78787870F0F1E1E1E1C3C3C78787870F0F1E1E1E1C3C3C787870F0F0E1E3C3C3C3C387878F0F5E
:402DC0000F0E1E1E3C3C3C387878F0F0E1E1E3C3C387878F0F0F0E1E1E3C3C38787871E1E1E1E3C3C38787870F0F1E1E1C3C3C787870F0F1E1E1E1C3C3C78787870F0F1EEC
:402E00001E1E1C3C3C78787870F0F1E1E1E1C3C3C7870F0F0F0E3C3C3C3C3C38F0F0F0E1E1E3C3C3C38F0F0F0F0E1E3C3C3C387878F0F0F0E1E1E3C3C3C387878F0F0F0EEA
:402E40001E1E3C3C3C387878F0F0F0E1E1E3C3C3C387878F0F0E1E1E1C7C3878787870F0F0F1E1E1C3C3C3C38787878F0F0F0E1E1E1E1C3C3C3C7878787870F0F0F1E1E1E2
:402E8000E1C3C3C3C3C78787870F0F0F0F1E1E1E1C3C3C3C3C78787870F0F0F0F0E1E1E1E1E3C3C3C3C3878787878F0F0F0F0E1E1E1E1E3C3C3C3C3878787870F0F0F0F1FD
:402EC000E1E1E1E1C3C3C3C7878787870F0F0F1E1E1E1E1C3C3C3C3C78787870F0F0F0F0E1E1E1E1C3C3C3C3C7878787870F0F0F0F1E1E1E1E1C3C3C3C3C38787878787816
:402F000070F0F0F0F0F0E1E1E1E1E1E1E3C1C3C3C3C3C3C3C3C3C3C3878787878787878787870F0F0F0F0F0F1E0E1E1E1E1E1E1E3C1C3C3C3C3C3C3C3C3C783C78387878DD
:402F40007878787878787878787878787878787878787878787878787878F078F078F078F078F078F078F078F078F078F078F078F078F078F0787878783C783C743C743CB9
:402F8000743C743C3A1E391E391E391E391E390F1D0F1C8F1C8F1C8F1C8F0E878E878E478E478E43C743C723C721E3A1E391E390F1D0F1CC78D43C743C721E3A1E390F1C6F
:402FC0008F1CC78CC3C6A3C730E398F19878D638E61E338E33871CC78CD1C751E1D171AA5C6B1E1B0F0EA3C6A3C3A8F1A8F0E63C358E394D8E53A394E8CD34B34B2CCB8D77
:4030000032E34CB4CB2D4CCAD332B8AD2D2D4AD332ACB2AAAAAAAAAAAAAAC6CAC5C6C9C5C5C9CA00AAAAAAAAAAAAAAAAAAAAAAAAAAAA96AAAAAAAAAAD2AAAA95AAAAB4A4BA
:40304000ED0D5752A8B7503FC144FE0ABF02DE3C07E381BF807D1F01E3E07E3E0F0783C3F07C0F0FE083FE01F87C07A7C603F86E0DF80787E07F00BFD007F805FEC03FC036
:403080001DFC03F8067F807F060FF807F00CFF01FE01F7A03FC05BF00FE03D7D01FC03F3E03FC07F1C0FE01FA1E0FE80FE3C0FE01F87C0FE03E1F03F807EE00FF803FC03DE
:4030C000FC03F0E0FF0187FC0F83E03F03F0F03F23941FC07FA03F805FE805FC503FE01FC08FF807F00FDE01FE203FC03FC02FF00BFC02FF00FE805FE02FE01FC40FBC0F69
:40310000E065FC01FF007FC03FA015FE01F8AF0873FA017F212FE09A4FE01F07F035E580BF443FD01F84BE0B07F807F9017F01EDD00FF01F2E81F886BF207F03697C07F094
:403140001F5580FE06F26A0FF01FA283FC05F85A4DA2D784D4F41BD4897E03DE243FC06E6D05DC27C5D0AD9569568BA94B6A627B445F84DA5556A85BA652BAA45E5A2BB082
:40318000AEA64B555359555552CBC8B4BA4BA5694D55555A8AD654B695594B5A95555A86E5691DC2B65646F0AF25535552E9594B69555A4B5A4B56A2BA8B5554AB686D5574
:4031C0004AD54AD5532D92ADA4B554AB594AD54AB552D4D2AD54AD5529B92AAD54AB52ACB4AB552AD2AAB546AD52AB2CAACAAAD4AAAD52AD52AAAAAB4AAB52AB2AAAB4AA6A
:40320000AAD2AAD52AB52AAD2AACAAD2AAAB4AAAAAAAAAAAAAAAAAAAAAAB2AAAAAAAAAAAAAAAAAAAAAAAAAAAAAAAAAB25AAAAAAAA6AAAAAAAAAAAAA5AA56AAA96AA5AAAACC
:40324000AAAAAAAAA5AAAAAAA95AAAAAAAAAAAAAAAAAAAAAAAAAAAAAAAAAAAAAAAAAAAAAAA9AAAAAAAAAAAAAAAAAAAAAAAAAAAAAAAAAAAAAAAAAAAAAAAAAAAAAAAAAAAAA34
:40328000AAAAAAAAAAAAAAAAAAAAAAAAAAAAAAAAAAAAAAAAAAAAAAAAAAAAAAAAAAAAAAAAAAAAAAAAAAAAAAAAAAAAAAAAAAAAAAAAAAAAAAAAAAAAAAAAAAAAAAAAAAAAAAAA8E
:4032C000AAAAAAAAAAAAAAAAAAAAAAAAAAAAAAAAAAAAAAAAAAAAAAAAAAAAAAAAAAAAAAAAAAAAAAAAAAAAAAAAAAAAAAAAAAAAAAAAAAAAAAAAAAAAAAAAAAAAAAAAAAAAAAAA4E
:40330000AAAAAAAAAAAAAAAAAAAAAAAAAAAAAAAAAAAAAAAAAAAAAAAAAAAAAAAAAAAAAAAAAAAAAAAAAAAAAAAAAAAAAAAAAAAAAAAAAAAAAAAAAAAAAAAAAAAAAAAAAAAAAAAA0D
:40334000AAAAAAAAAAAAAAAAAAAAAAAAAAAAAAAAAAAAAAAAAAAAAAAAAAAAAAAAAAAAAAAAAAAAAAAAAAAAAAAAAAAAAAAAAAAAAAAAAAAAAAAAAAAAAAAAAAAAAAAAAAAAAAAACD
:40338000AAA6AAAAACB26AAACAAB32A5AD2AB5256D456E455D31D3872C70EBE805FE070F59604FBE023BF0C38FBA00FFA083FC30F307C07F2E03F407FA017F80A7FA01FED9
:4033C0000C71F80FE070FF00FF013FD01FE083FE01FE023FE01FE045FE01FE805FE01FE805FC07F060FF00FF00AFF00FF4027F807FA807F00EFD00FF00BFD407F403FB0097
:40340000FF007F520F82FC07F0780FE07F03F03F07E03C9AF10D7E01F11F8878E3C1FD047DC03F8D07F81F841FE042FF80DE3C23E2DC0FE01FC703FA807F0A0BF80FEC01F1
:40344000FF00DEEC07F00AFF403FC07C7443FC0D2BD90D1F21E51794F81F478257F10B3F00BFC307E81EC3E0BE09E5E807FA0AF1C53E05F855C3A57A03FC097F601FE01EB8
:403480007C03F87817F807F1217F803F82AFC81F8569EA0EA8E92FC294BEA06F9252FC0FC1BA1D45F03F01FA52A5D43E85F426C6EA1AB5A0DB53527A0BAAB297A437A9237A
:4034C0007C256D5496B495E2AA9E8A76A15B69257E03D554AB68AB692AB5A1B6951B5554AB52B52B554AB54AD54B55257545B4B49754AAB549B62AAAD256D4AAAAA56E4A76
:40350000AACAAD2B4AD457552AAD515B5496D2A5B52AB5495AB4AB2AAAAAAAAB2AAAAAAAAAAAB2AAAA9AAAAAAAAAAAA9B2AAAAB2AAAAAAAAA5AAAA96A96AAAAA5A95A9AA79
:4035400056A95AAAA56D15AAAA97295AAA95AA95AAA95AA9696A936A5555A956A5555AA5555A55A95556955AA5556955AA655AA55A955555555955555555555555695555B3
:403580005555555555555500004C12AF133E6AAA666AA9AA9A9AA6A9A9A3A0FD1783F05E8AF07C2BC17C2F41F0AF11F0AF07C8BC47C2BA17C1E85F03E85F03E15E0EE17C4E
:4035C0000FA1782F85D83E85F06E87617A17C1BA1D91E85F06E87647A17A17A1791B89D85E85E85E87617A17A17A1B91E85E85E85E87627A17A17A17A1E85E85E85E85E25B
:403600007617A17A17A1789E83E85E85E85E27A17A0FA0F88F83783E83E83E0BE0BE0FA0FA0F82F82F83E83E83E0BE0BE0FA0F90F82F83D83E83E13E0BE0DE0FA0F82F824B
:40364000F83E83E83E0BE0BE0FA0FA0F82F82F83E83E83E0BE0BE0FA0FA0F82F82F83E83E83E0BE0FA0FA0F82F82F83E83E83E0BE0BE0FA0FA0F82F82F83E83E83E0BE0B80
:40368000E0FA0F82F82F82F83E83E83E0BE0BE0FA0F82F82F83E83E83E0BE0BE0FA0FA0F82F82F83E83E83E0BE0BE0FA0F82F82F82F83E83E83E0BE0FA0FA0F82F82F83EF2
:4036C00083E83E0BE0DE0FA0FA0F82F82F83E83E13E0DE0BE0FA0F90F82F83E83E83E83E0BE0FA0FA0F81F82F42F81F07D07C8BC4BE11D8DC86F0CED05FC07F01FA05FC0DB
:403700007F40FC07F017F017E03F80FE03F807F80FE03F80FE01FE03F80FE03F807F80FE03F80FF01FC03F80FE03F807F80FE03F80FE01FE03F80FE03F807F80FE03F01FDE
:40374000E01FE03F80FE03F80FE01FE03F81FC07F007F80FC07F01FE01FC07F01FC07F407F01FC07F01FE01FC07F01FC07F807F01FC07F01FC03FC07F01FC07F807F01FCC5
:4037800007F01FC03FC07F01FC07F00FF01FC07F01FE01FC07F01FC07F807F01FC07F01FC03FC07F01FC07F00FF01FC07F01FE01FC07F01FC07F807F01FC07F01FC03FC050
:4037C0007E03F80FF00FE03F80FE03FC03F80FE03F80FF00FE03F80FE03FC03F80FE03F80FF00FE03F80FE03FC03F80FE03F80FF00FE03F80FE03FC03F80FE03F80FF00F60
:40380000E03F80FE03FC03F80FE03F80FF00FE03F80FE03FC03F80FE03F40FE80FE03F80FE03FA03F80FE03F80FF00FE03F80FE03FC03F80FE03F80FF00FE03F80FE03FA1A
:4038400003F80FE05F80FE80FE03F81FA03FA03F80FC0BF40FE01FC07F01FC05FC07F01FC07E817F01FC07F01FA05FC07F01FC07E817F01FC07F01FA05FC07F01FC07E819E
:403880007E81FC07F02FA0AFC07F01FC0BE82FD01FC07E82FA06F80FE03F817D417E03F80FE05F505F80FE03F817D417E03F80FD05EC85F80FE03F417B217E03F80FD05E6A
:4038C000C85F80FE03F417B217E03F80FD05EC45F40FD03F217B097D03F40FC85DC25F40FD03F2177097D03F40FC85DA15F20FC15F2176857C43F057C85DA25F04FC15E984
:40390000176857C13F057A45DA15F04FC15E9176857C15F057A45DA15F057C15E9176857A0BE857A25DA15E82FA0DD456D42FA0BE82F513748BD42F90BD44DD22F50BD428D
:40394000F513748BD22F48BB24DD22F48BD22EC93744BD12F44BB24DD12F44BD12EC93744BD12F44BB24DA92F44BD12EA8B6A2BB12F44BA92DA8AEC2BA8AEA4B6A2BA8AECD
:40398000A2B692DA8AEA2BA8ADA4B6A2BA8AEA2B692DA8AEA2BA8ADA4B6A2BA8AEA2B692DA8AEA2BA8ADA4B692BA8AEA2B692DA4AEA2BA8ADA4B692BA8AE92B692DA4AE957
:4039C0002BA4AD94B692BA4AE92B652DA4AE92BA4AD94B692DA4B692D652DA4B692DA4B594B692DA4B692D652D64B692DA4B554B552D64B552D54AD54AD52B54AD52B54AE4
:403A0000B52AD4AB54AB52AD4AB52AD52AD4AB52AD4AB54AB52AD4AB52AD52AD4AB52AD4AB54AB52AD4AB52AD52AD4AB52AD4AB54AB52AD4AB52AD52AD4AB52AD4AB52AB49
:403A400052AD4AB52AD52B54AB52AD4AB52AB52AD4AB52AD4AAD4AB52AD4AB52AB52AD4AB52AD4AAD4AB52AD4AB52AB52AD4AB52AD4AAD4AB52AD4AB52AB52AD4AB52AD4BC
:403A8000AAD4AB52AD4AB52AB52AD4AB52AD4AAD4AB52AD4AB52AB4AAD2AB4AAAAAAAAAAAAAAAAAAAA000000AAAAAAF03F017E817F207D0F80FF00FF00FF00FE817F407FB1
:403AC00000FF017E817B1F01FD01FC03FC03FA03FA80FE01FE01FE01F63C07F807F807F40BF20BF501FC03FC03FC03F47817E41FB01FA81EE41BE507F807F407F407D1F0DA
:403B00002FC077C05FA06F906F520FF00FF00FE80FD1E05F817E8177817B416F4A0FE01FE01FD01F53C0BF02EF02BE82BE82BE903FC03FC03FA05DC7817E817E817E417E53
:403B400041BD283FA03F903F903E8F01FE02FD02FD02FA837A883FC05FA05FA06F1E03F905F885F445F446EC983F80BF80DF40DE9A0FD097A897A857A45754B07F01FC8113
:403B8000FA0AF9325B526B496B295AA56AAAE07F01FC07F20DE85B525B496D25B496D25ACAE0FE03F01FC0FD05D91B646D45B49B4AB4AB53C0FC0FC0FC1F81F81F81F05F4C
:403BC00007A27A1E8AE4BAC1F07C0F83E0F83E0F85E1745C9B26AAAAAAAB07C1F0F0787C2E4E8B93A364D55555555555558F0F0D8D565655570F165A5A5A59555555555602
:403C00008E1E2E35353534AE2E3938D4D4D3534B4B4B551E1CACB4B4B2AAB47872B2D2CACAAAAAAAAAAA9C3C5C6A6AAAAAB87871B1D1CACAAAAAAAAAAA9C5C5CACAAAAAA71
:403C4000B87878787874B4ACACACAAAAAD2B2AAAAAAAAAF07C3C1E8D8B52D4B52D4D5354D5354D55552AF07C0FC1F07A17A1791B4AB34AB4AB4AB4AAAAF07E07E05F21EAD4
:403C80001BA2764AD552D52B552D52ABC0BF037C15E857A25D897549B525B4A6D4AAAB516E45B525B496D496D25B515D456D257525B5257515B496D25ACA6AA9AAA8DE1215
:403CC000F48BD256CA5AC96AA5AA56A95AA56A96A2ED0BB12F44DA956A2EA4DA4DA4D655655695A1F41EA2DA2DA2D555555555555555555555554AE87627A2D92D555555DA
:403D00005555555555555555555364D92D4B54D554BA2D9364D52D4B52D535555354D52D5354B562BA2E8B64B52D52D4AD4B54B54B54B54B52AB51791B91B4AB4AB4AB4A7A
:403D4000B4AAD4AB4AB4AACAAB517916D25D49B49AD2AB2AAAAAAAAAAAAAAAAB497525B496D25AAA6AA9AAAAAAAAAAAAAAAAAB25ACA5AA96AA96AA56AA5AAA56AA56A956A1
:403D8000A95AA55AA56A956A55A955A556A956A956A55A95A56955555555555555555555553594D65565565565565555555555555555555556536555555555555555555542
:403DC000555555555555555555555555555555555555555555555555555555555555555555555555AAAAAB513545B555B4AAED03F01F82D49A95ED37E03E03F0F85A03C2CD
:403E0000FCBFE0780F1F83E028B56FF703C067E1F86055377FE0E140F9E2F04347CFE0E381E3C7C383179FC38E071E3CB070EAFC38E0C3C7970C39BF0E3830F1C7852D7FCA
:403E4000861C3871C78B18FF871C18F1C3951CBF8E1C38E1C78C8F5F0C7871C38E58BAF831E1878C732A6EF0C7851E38D54ADF871C29E1C73265EE18F14B8E35931EB8E33F
:403E80008A5C71AA9973C63C31E31C7269CF18E8AB8D1AA59AB8E31A3A69A698D59C63C69A58E694CD5D18E5955539934D34F0E38E1CD4D552AAAAD718E32734B54D2A6603
:403EC000AAB518E5566A9AAA9565555AAC639659AAAAA65555595555555A99A00000000000300F40000280320F40800100400F400004000000320F405C40000080000000F9
:403F000001000F4038300F4023310F403A330F4004400F4004410F4002600F40820F000E2404260928052A0A2C032E04300F3802544058045B045F01804D8280848D8640BD
:403F40008702881089088A608B348CCD914D92809330947295549608972B981299649A649B1B9C029E0DA0CDA8CDAC01AE32B280B303B470B53CB60FB740BAA0BB20BE04C8
:403F8000BF40D409D604D804D904DB04DF010102040A051006020E290F80120A130815011620175419021C101D101E01251426802704361A3D285C205E425F0460106180CF
:403FC000630866016702C0F8C2F0C4D7CCE0CE60D6F0D89E051407410C800D020E28150117141D241E42261E274828202B202D212F20351037493E16452047084D204E0AE2
:404000004F045582576466206C056D016E146F15748076028D04940A95019640970499109A209C209E029F58A580A61FA744AA01B680B701C0F0C2F0C470CAE0CCF0CEE0C0
:40404000D060D230D820E2105F026F10D680DA808F029F02AB10EA20010110010716380001120004040400120400800060120004569A09050A121000842700488416000053
:404080008084040084C100320000000008077F1D80E08000080000280000510063052000000ECDBF3DFFFFFF2200F008040000000000022404040404000000010000C00004
:4040C00040011011C0010011400140010000000000000000000000000000000004000000F8B5C046F8BC08BC9E4670472903000095050000F8B5C046F8BC08BC9E467047B4
:404100000103000018410000C800002018000000200000000000000000000000C0F1FF0F006CDC0280BB0000300000000000C05D0000000000000000000000000000000071
:40414000000000000000000000000000000000000000000000000000000000000000000000000000000000000000000000000000000000000000000000000000000000003F
:4041800000000000000000000000000000000000000000000000000000000000000000000000000000000000000000000000000000000000000000000000000000000000FF
:4041C00000000000000000000000000000000000000000000000000000000000000000000000000000000000000000000000000000000000000000000000000000000000BF
:40420000000000000000000000000000000000000000000000000000000000000000000000000000000000000000000000000000000000000000000000000000000000007E
:0200000490303A
:0200000080ED91
:0200000490402A
:200000000000000000000000000000000000000000000000000000000000000000000000E0
:0200000490501A
:0C000000000204C81193110104E6928074
:0200000490600A
:0100000001FE
:00000001FF