:400000000010002011000000E10C0000E10C000080B500AF00F068FE80B584B000AF021CFB1D1A70224A3B1C0B3312781A70214A3B1C0A3312781A701F4B1B68013BFB60E7
:400040001AE01E4B1868391C0B31FA68131C5B009B18C31801331B780B70184B1868391C0A31FA68131C5B009B18C31802331B780B70FB68013BFB60FB68002B0ADB0F4B59
:400080001968FA68131C5B009B185B5CFA1D12789A42D6D90A4B3A1C0B3212781A60094B3A1C0A3212781A60BD4604B080BDC046CCF1FF0FCDF1FF0FC02F0000CC000020FB
:4000C0001CFF0B4020FF0B4080B500AF234B234A12688021C9020A431A603020FFF79CFF1F4B204A1278D2B21A60052002F0B8F91D4B35221A601D4B20221A601C4B1022C9
:400100001A601C4B11221A601B4B30221A601B4B21221A601A4B21221A601A4B30221A60194B822212061A60184B802212061A600A4B8022D2021A60154B164A1A60164B78
:40014000164A1A60164B174A1A60174B174A1A60174B184A1A60BD4680BDC04600010B4028FF0B40FDF1FF0F2CFF0B4014020240180202401C020240200202402402024098
:40018000280202402C02024008010B4004010B400000024017000080400002402F0000C08000024001000080040002402F000080440002409F0F008080B582B000AF72B64B
:4001C000FB1D00221A7023E0FB1D1A78131C5B009B185B004B4A9B183B603B681A78597809020A43997809040A43DB781B0613431A1C3B6819795B791B020B439BB2101C5D
:40020000191C00F0F1FDFB1DFA1D127801321A70FB1D1B78012BD7D93B4A3C4B101C191C00F0F2FD3A4B3B4A1A603B4BEE2212021A603A4B85221A60394B3A4A1A603A4B0D
:400240003A4A1A603A4B0F221A603A4B3A4A1A603A4B0F221A603A4B01221A60394BD82212011A60384B01221A60384B06221A60374B36221A60374B04221A60364B992279
:4002800012041A60354B802212061A60344BC42292031A60334B344A1A60344B344A1A60344B314A1A60344BAA2212061A60334B992212041A60324B802252051A60314B13
:4002C00010221A60304B314A1A60314B314A1A60314B10221A60314B304A1278D2B202210A43D2B21A702D4B2C4A1278D2B206210A43D2B21A70FFF7E7FE00F0C5FDBD46B9
:4003000002B080BDF02E0000FC2E00001C2F000000000140030300000C0001400000044008000440B60D400008010440499224010002044008020440009024001802044021
:4003400000030440080304401803044000040440080404401804044000500F4004500F4008500F4010500F400400990014500F400000AAAA20500F4024500F4030500F4003
:4003800038500F40200105406001054060000400A001054020000500E001054000700F4010B5064C2378002B07D10548002802D0044800E000BF0121217010BDE800002097
:4003C00000000000902A000008B5084B002B03D00748084900E000BF07480168002903D0064A002A00D0904708BDC04600000000902A0000EC000020C800002000000000A8
:4004000080B500AF00F01AF8FF2002F03DFA00F063F9002002F038FA00F024FA80231B01181C01F017FFEFE780B500AF042001F0BBFE092001F0F4FFBD4680BD80B500AF3D
:40044000FF2002F021FA002002F01EFAFF2002F01BFA002002F018FA62B6184B0920191C01F038FF092001F0AFFF0020012101F0A9FD134B0020191C01F05CFE00200121FA
:4004800001F0D8FD082001F021FE0120022101F051FE0120022101F095FD0120012101F0C9FD084B181C01F0F9FD00F0FBF800F00BF800F0C9F9BD4680BDC0462904000090
:4004C000FF4F00000101000080B500AF00F0CEFE00F068FFBD4680BD80B582B000AF021CFB1D1A70FB1D1A780123134003D0FF2001F0D4FF02E0002001F0D0FFFB1D1A785C
:400500000223134003D0FF2002F08AF902E0002002F086F9BD4602B080BDC04680B582B000AF0A1CBB1D011C19803B1D1A80BB1D1B88181C00F0BAFE3B1D1B88181C00F03F
:4005400051FFBD4602B080BD80B584B000AF021CBB1D1A80BB1D00215B5E002B0CD13B1C0F3300221A703B1C0A33474A1A803B1C0C33454A1A8073E0BB1D00229B5E002BA3
:4005800037DD3B1C0C33404A1A80BB1D00215A5E3E4B9A4216DD3B1C0F3301221A70BB1D00229B5E3A4A53433A495B18181C374902F0DCF9031C9AB23B1C0A3334495218BA
:4005C0001A804DE03B1C0F3300221A70BB1D00229B5E314A534331495B18181C2B4902F0C5F9031C9AB23B1C0A33294952181A8036E03B1C0A33244A1A80BB1D00215A5ECE
:40060000274B9A4216DA3B1C0F3302221A70BB1D00229B5E204A53431E495B18181C1B4902F0A4F9031C9AB23B1C0C33184952181A8015E03B1C0F3300221A70BB1D0022A7
:400640009B5E134A534315495B18181C0F4902F08DF9031C9AB23B1C0C330D4952181A803B1C0F331B78181CFFF736FF3B1C0A331A883B1C0C331B88101C191CFFF74EFFC0
:40068000BD4604B080BDC046409CFFFFFF3F0000204E0000204E78ECE0B1FFFFE0B1871301C0FFFF80B500AF0A4B012252421A8000F01CFC00F034FD00F03CFF002001F080
:4006C00021FB01F0F1F901F0EBFA00F0CFFFBD4680BDC0464801002080B500AF01F0D4FE031C1A1C204B1A70012000F027FD031C002B2AD0002000F045FD031C9AB21B4B33
:400700001A801B4B65221A80012000F03BFD031C9AB2184B1A80174B1A88174B1A80022000F030FD031C9AB2144B1A80134B1B88134A5343181C134902F0CAF8031C9AB2A1
:40074000114B1A80104B114A1A8000F0BBFF031C002B07D10E4B1A880E4B1A8001F0A0FA00F084FFBD4680BD0401002006010020080100200A0100200C0100200E0100203F
:40078000AC260000DB07000048010020911A0000340100201001002080B500AF024B1B78181CBD4680BDC0460401002080B500AF024B1B88181CBD4680BDC0460801002011
:4007C00080B500AF024B1B88181CBD4680BDC0464801002080B500AF054B1B781A1C0549131C5B009B189B005B589847BD4680BD4C010020942A000080B500AF064B1B785A
:400800001A1C0649131C5B009B189B00CB1804331B689847BD4680BD4C010020942A000080B500AF064B1B781A1C0649131C5B009B189B00CB1808331B689847BD4680BD8F
:400840004C010020942A000080B500AF01F0E0FE034B00221A70FFF7BDFFBD4680BDC0464C01002080B500AF434B1B78002B0DD1424B1A8880231B029A4207D101F0F6FFA4
:40088000031C002B02D13C4BFF221A703B4B1B885B009AB2394B1A8001F0E8FF031C002B06D0364B1B88012213439AB2334B1A80FFF786FF031C1A1C314B9A4207D8FFF705
:4008C000AFFF304B08221A70FFF784FF50E02A4B1B78002B16D02B4B1B78082B12D0FFF79FFF254B00221A70264B1B78002B03D1244B01221A7002E0224B00221A70FFF77B
:4009000069FF35E0FFF752FF031C642B0FD81D4B1B78012B03D01B4B1B78022B07D1FFF77FFF184B03221A70FFF754FF20E0FFF733FF031C002B0BD0124B1B78012B07D156
:40094000FFF76EFF0F4B02221A70FFF743FF0FE0FFF722FF031C002B0AD10A4B1B78022B06D1FFF75DFF074B01221A70FFF732FFFFF742FFBD4680BD150100201601002061
:40098000901A00004C01002080B500AFBD4680BD80B500AFBD4680BD80B500AFBD4680BD80B500AF054A054B101C191CFFF7B6FD0020FFF791FDBD4680BDC046409C000061
:4009C00080B500AFBD4680BD80B500AF00200021FFF7A4FDBD4680BD80B500AF00F0C2F8322001F0A1FE021C014B1A60BD4680BD5001002080B582B000AF0C4B1B68181CAE
:400A000001F0C8FE031C002B0CD000F0BFF8031C1A1CFB1D1A70FB1D1B789BB21BB2181CFFF792FDBD4602B080BDC0465001002080B500AF00200021FFF770FD034B1B68FB
:400A4000181C01F0CFFEBD4680BDC0465001002080B500AFBD4680BD80B500AFBD4680BD80B500AFBD4680BD80B500AFBD4680BD80B500AFBD4680BD80B500AFBD4680BDF5
:400A800080B500AFBD4680BD80B500AFBD4680BD80B500AFBD4680BD80B500AFBD4680BD80B500AFBD4680BD80B500AFBD4680BD80B500AFBD4680BD80B500AFBD4680BD16
:400AC00080B500AFBD4680BD80B500AFBD4680BD80B500AFBD4680BD80B500AFBD4680BD80B500AF0A2001F01FFE021C014B1A60BD4680BD5001002080B500AF0F4B1B68F4
:400B0000181C01F047FE031C002B15D00C4B0D4A1A800B4B1A880A4B1B88101C191CFFF7FDFC094B1B78002B03D00320FFF7D4FC02E00020FFF7D0FCBD4680BD5001002051
:400B400012010020307500001401002080B500AF034B1B68181C01F045FEBD4680BDC0465001002080B500AF054B00221A80054B00221A80044BFF2212021A60BD4680BD5A
:400B8000540100205C0100205801002090B583B000AFFB1D00221A70BC1DFFF7FDFD031C23707C1DBB1D1B78181C00F049F8031C2370FB1D1B785BB299B27B1D1B785BB20E
:400BC0009AB2BB1C8A1A1A80BB1CBA1C12881A80BB1C00229B5EE122D20053431A1C164B1B68D218144B1A60134B1A68124B1A60124BBA1C12881A800F4B1B681A1CFF2326
:400C00001B049A4204DD0C4BFF2212041A6006E0094B1B68002B02DA074B00221A60064B1B681A0C7B1C1A707B1C1B789BB21BB2181CBD4603B090BD58010020540100209A
:400C400080B582B000AF021CFB1D1A70FB1D1B78F82B38D89A00204BD3181B689F461F4B81221A7030E01D4BB1221A702CE01B4BC1221A7028E0194BD1221A7024E0174BCE
:400C8000E1221A7020E0154BF1221A701CE0134B00221A7018E0114B0F221A7014E00F4B1F221A7010E00D4B2F221A700CE00B4B3F221A7008E0094B4F221A7004E0074BBF
:400CC0007F221A7000E0C046044B1B785BB2181CBD4602B080BDC0460C2B00001801002080B500AFFEE7C04680B586B000AF254B7B61254B3B61234B7B61234B3B6132E0B1
:400D00003B691B68FB603B695B68BB603B699B683B6000237B600CE0FB681A68BB681A60BB680433BB60FB680433FB607B6804337B607A683B689A42EED13B69DB683B6000
:400D400000237B6008E0BB6800221A60BB680433BB607B6804337B607A683B689A42F2D13B6910333B617B695A1E9341DBB27A69013A7A61002BC3D101F05AFEFFF740FBCE
:400D8000FEE7C046010000006030000080B582B000AF00237B600FE07B68032B04D80E4B7A689200D35800E00C4B0D4A796889008B507B6801337B607B682F2BECD9FFF712
:400DC000FBF9084B00221A608023DB0501221A60BD4602B080BDC04600000000E10C000000000020C000002080B582B000AF786039607A683B68101C00211A1C01F03EFE4F
:400E0000BD4602B080BDC04680B586B000AF7860396000233B6100237B612EE07B699B007A68D3181B68BB603B1C0F33BA681A70BB68FF229343BB6017E03B695B003A6867
:400E4000D3181B781A1CBB68D3183A69520039688A1852781A703B6901333B613B1C0F333A1C0F321278013A1A703B1C0F331B78002BE2D17B6901337B617B69072BCDD977
:400E8000BD4606B080BDC04680B500AF054B0F221A60054B0F221A60012000F007F8BD4680BDC04600031A4040031A4080B584B000AF021CFB1D1A700B4B1B68FB60FB1DE8
:400EC0001B78002B05D0FB68802212061343FB6003E0FB685B005B08FB60034BFA681A60BD4604B080BDC04680031A4080B500AF064B1B78002B04D100F00AF8034B012206
:400F00001A7000F0FDF8BD4680BDC0461901002090B585B000AF0E20032101F001FA5D4B0E20191C01F0D6F95B4B07221A605B4B5B4A1A605B4B5C4A1A605C4B5C4A1A60F5
:400F40005C4B00221A605C4B5C4A1A605C4B5B4A1A605C4B5B4A1268802149020A431A60594B594A1268802149020A431A60574B00221A60564B00221A60564B01221A60FB
:400F8000554B02221A60554B1B687B607B68012213437B60514B7A681A600023FB6072E04F4BFA689200D258DC239B0113407B604C4AFB68D3181B787A6813437B60FB6888
:400FC0009B00494A9B187A681A60454BFA689200D258012313400AD03C4B3C4A1168FA680120041C9440221C92B20A431A603C4BFA689200D258022313400AD0344B344A7B
:401000001168FA680120041C9440221C92B20A431A60334BFA689200D25880239B00134003D080235B00BB6002E080235B01BB602B4BFA689200D25880235B00134005D1A7
:401040002A4BFA6852000021D15209E0BB68002B00DA01335B1099B2244BFA685200D152BB68234A5343234A9B18181C224901F07DFC031C9BB219B2204BFA689200D150BC
:40108000FB680133FB60FB68032B89D9BD4605B090BDC046C911000020001A4000001A407020001304001A408400008018001A400000FF071C001A4010001A40040004002D
:4010C00014001A4000031A4040031A4028021A4038021A4018021A40000F1A4030001A40C42F0000D42F000080001A407001002010270000E40C0000C8190000600100201F
:4011000080B500AF054B054A1268802109060A431A600A2001F0A4F9BD4680BD00001A4080B500AF044B044A1268802149020A431A60BD4680BDC04604001A4080B584B02E
:4011400000AF78600023FB607A680323134011D00B4B1A6801231340FB60FB68002B03D17A6802231340F3D1FB68002B02D0044B01221A60FB68181CBD4604B080BDC04627
:4011800010021A4080B584B000AF78607B68032B02D9002001F05AF97B68032B08D87B689B00084A9B181B681B041B0CFB6001E00023FB60FB689BB21BB2181CBD4604B024
:4011C00080BDC04680011A4080B582B000AF044B1B687B60024B7A681A60BD4602B080BD10021A4080B500AF0E4B8022D2041A600C4B0C4A12681A600A4B0A4A12681A609A
:40120000094B0C221A60012000F07CF8074B181C00F03EF8002000F049F8054B31221A60BD4680BDC0010540E4010540FFFF0000E801054090B583B000AFFC1D00F095FEB4
:40124000031C2370084B084A126808210A431A60FB1D1B78181C00F08CFE0820182100F033F8BD4603B090BD0000054080B500AF064B1B78002B04D1FFF7B4FF034B0122AE
:401280001A70FFF7D7FFBD4680BDC0461A01002080B582B000AF7860034B7A681204120C1A60BD4602B080BDD401054080B582B000AF7860034B7A681204120C1A60BD46B0
:4012C00002B080BDCC01054090B585B000AF786039603C1C0F3400F048FE031C2370084B3A687968081C9040021C1A603B1C0F331B78181C00F03DFEBD4605B090BDC046D8
:401300000800054080B582B000AF7860024B7A681A60BD4602B080BDF801054080B500AF0E4B8022D2041A600C4B0C4A12681A600A4B0A4A12681A60094B0C221A6001200F
:4013400000F07CF8074B181C00F03EF8002000F049F8054B31221A60BD4680BD0001054024010540FFFF00002801054090B583B000AFFC1D00F0F9FD031C2370084B084A16
:40138000126801210A431A60FB1D1B78181C00F0F0FD0120182100F033F8BD4603B090BD0000054080B500AF064B1B78002B04D1FFF7B4FF034B01221A70FFF7D7FFBD4616
:4013C00080BDC0461B01002080B582B000AF7860034B7A681204120C1A60BD4602B080BD1401054080B582B000AF7860034B7A681204120C1A60BD4602B080BD0C01054046
:4014000090B585B000AF786039603C1C0F3400F0ACFD031C2370084B3A687968081C9040021C1A603B1C0F331B78181C00F0A1FDBD4605B090BDC0460800054080B582B01D
:4014400000AF7860024B7A681A60BD4602B080BD3801054080B500AF1B4B1B78013B9BB2181C002100F024FD184B1B78013B9BB2181C002100F052FD00F032F9144B154A14
:401480001A60154BC022D2001A60002000F08CFA124B124A1168124A0A401A600F4B0F4A1268C021C9000A431A600F2000F0A2FF0C4B0F20191C00F00DFF0F20032100F0E4
:4014C0002FFFBD4680BDC046D4000020D5000020040008400028A0010800084010000140FFF0FFFFE11D000080B500AF00F0C6FC00F0FAFC0E4B0E4A1268802109060A434A
:401500001A600B4B0A4A1268802109030A431A60642000F0A5FF064B054A1268802149010A431A600F2000F04FFFBD4680BDC0460400084080B500AF094B1B78002B04D1EB
:40154000FFF788FF064B01221A70FFF7CDFF054B044A12688021C9030A431A60BD4680BD1C0100200400084080B584B000AF021CFB1D1A70FB1DFA1D127801321A70FB1DB3
:401580001B78012B1BD03B1C0F33FA1D1278D2081A70FB1D1A780723134001229A403B1C0E331A703B1C0F331B78084AD35C3A1C0E3212781340DBB2002BDBD000E0C04634
:4015C000FB1D1B78181CBD4604B080BD2801002080B584B000AF021CFB1D1A70114B1B68FB60FB68FF229343FB60FB1D1B780E4AD35CFA681343FB600A4BFA681A600B4B3C
:401600001B78013B9BB2181C002100F051FC084B1B78013B9BB2181C002100F07FFCBD4604B080BD08000840E42F0000D4000020D500002080B582B000AF021CFB1D1A70B7
:40164000084B00221A70084BFA1D12781A70054B81221A70FB1D1B78181C00F027F9BD4602B080BD1D0100201E01002080B500AF124B00221A70124BFF221A70104B1B782F
:40168000DBB2181CFFF770FF031C1A1C0C4B1A700B4B1B78DBB2002B0DD1084B1B78DBB201221343DAB2054B1A70054B1B78DBB2181C00F0FBF8BD4680BDC0461D010020F2
:4016C0001E01002080B500AF044B1B78DAB201231340DBB2181CBD4680BDC0461D01002080B582B000AFFB1D00221A7009E0FB1D1B78181C00F068F8FB1DFA1D12780132BF
:401700001A70FB1D1B78002BF1D0BD4602B080BD90B587B000AF021CFB1D1A70FB1D1B78254AD35C7B61FB1D1B78244AD35C3A1C1332191C4900CB181370FB1D1B781F4AAB
:40174000D25C3B1C123392001A701D4B7A699200D3581B68FB603B1C12331B780F22111C99400B1CDA43FB681340FB603B1C12331B780422141C9C40231CFA681343FB602F
:40178000104B7A699200D3580E4A796989008A581268391C133109780720041C8C40211CC9430A401A60064B7A699200D358FA681A60BD4607B090BDD82F0000E02F0000EB
:4017C000F42F00000430000090B587B000AF021CFB1D1A70FB1D1B782F4AD35C7B61FB1D1B782E4AD25C3B1C133392001A70FB1D1B782A4AD35C3A1C1232191C4900CB1825
:401800001370274B7A699200D358254A796989008A581268391C133109780F20041C8C40211CC9430A401A601E4B7A699200D3581B68FB603B1C12331B780722111C994056
:401840000B1CDA43FB681340FB603B1C12331B780622141C9C40231CFA681343FB60114B7A699200D358FA681A600F4B7A699200D3580D4A796989008A581268F91D0978D7
:401880000648415C0120041C8C40211CC9430A401A60BD4607B090BDD82F0000E02F0000F42F0000043000001430000090B585B000AF021CFB1D1A703C1C0F3400F055FBA7
:4018C000031C2370FB1D1A783B1C0E3324498A5C1A70FB1D1B78181CFFF77AFEFB1D1B78181CFFF715FF1F4B1B68BB60BA681E4B1340BB60BB68A02212021343BB60194B12
:40190000BA681A60642000F0ABFD164B1B68BB60BA68154B1340BB60BB68832292031343BB60104BBA681A6000F0B6FA00F0EAFA00F0A4FA00F0D8FA0A2000F091FD0B4B79
:401940003A1C0E3211780A4A89008A581A603B1C0F331B78181C00F00CFBBD4605B090BDF02F000004000840FF3FDFFF0C000840EC2F000080B582B000AF021CFB1D1A70E7
:40198000FB1D1A78064B1B6899B2064B5200D152FB1D1B78181CFFF717FFBD4602B080BD0C0008402001002080B582B000AF7860094B094A1168094A0A401A607A680323F9
:4019C00013407B60044B044A11687A6852020A431A60BD4602B080BD04000840FFF9FFFF80B584B000AF021CFB1D1A70FB1D1A783B1C0F3317498A5C1A70FB1D1A78FB1DC5
:401A00001978154B4900C95A144B5200D152FB1D1B78134A0021D154FB1D1A78114B52000021D1523B1C0F331B783A1C0F3212780D49895C0D4AD154FB1D1A78FB1D197834
:401A4000054B4900C95A0A4B5200D152BD4604B080BDC046F02F0000200100202C0100203001002034010020303000003C0100207C01002080B582B000AF021CFB1D1A7063
:401A8000FB1D1B78181CFFF7D5FDC046FFF71AFE031C002BFAD1FB1D1B78181CFFF7A0FFBD4602B080BDC04680B582B000AFFB1D00221A7009E0FB1D1B78181CFFF7DAFF79
:401AC000FB1DFA1D127801321A70FB1D1B78002BF1D0BD4602B080BD90B587B000AF021CFB1D1A70FB1D1A783B1C153364498A5C1A703B1C153319783B1C1233614A4900D6
:401B00008A5A1A80FB1D19783B1C10335E4A49008A5A1A80FB1D1A785C4B5200D35A3C1C10343A1C10321288101C191C00F03AF9031C2380FB1D1A78544B5200391C103160
:401B40000988D152FB1D1A78514B5200D35A3A1C103212889A4210D3FB1D1A784C4B5200D25A3B1C1633391C103109888A1A1A803B1C153301221A700FE0FB1D1A78444BC3
:401B80005200D15A3B1C16333A1C103212888A1A1A803B1C153300221A703B1C15331B78002B1ED13B1C16331B88142B19D9FB1D1B78384AD35C042B0AD9FB1D1B78181C40
:401BC000FFF70EFFFB1D1B78324A0021D15437E0FB1D1B782F4AD25C0132D1B22D4AD1542EE0FB1D1A782A4B5200D35A1B02FB60FB1D1B78284AD35CFA681343FB603B1CE0
:401C000010331B88FA68D318FB60FB1D1A78204B5200D35AFA68D31AFB60FB1D1A78FB681B0A99B21A4B5200D152FB1D1B78FA68D1B2194AD154FB1D1B78164A0021D15418
:401C40003A1C16323B1C123312881B889A420DD93B1C15331B78002B08D0FB1D1A780F4B5200391C16310988D15205E0FB1D1A780A4B52000021D152BD4607B090BDC046C9
:401C8000F02F000028300000200100207C0100202C01002078010020300100203401002080B582B000AFFB1D00221A7020E0BB1DFA1D1278D2081A70FB1D1A780723134065
:401CC00001229A407B1D1A70BB1D1B780C4AD35C7A1D12781340DBB2002B04D0FB1D1B78181CFFF7F9FEFB1DFA1D127801321A70FB1D1B78002BDAD0BD4602B080BDC0461B
:401D00002801002080B584B000AF021CFB1D1A70FB1D1A783B1C0F331F498A5C1A70FB1D1B781E4AD15C3B1C0E333A1C0F3212788A181A703B1C0D333A1C0F321278D208B0
:401D40001A703B1C0F331A780723134001229A403B1C0C331A703B1C0D331B783A1C0D3212780F49895C3A1C0C3212780A43D1B20B4AD1543B1C0F333A1C0F321278013239
:401D80001A703A1C0F323B1C0E3312781B789A42D0D3BD4604B080BD34300000383000002801002080B584B000AF0A1CBB1D011C19803B1D1A80BB1D1A883B1D1B88D318A7
:401DC000FB603B1D1B885B00FA68D318FB60FB689B08FB60FB689BB2181CBD4604B080BD90B583B000AFFC1D00F0BFF8031C23701F4B01221A601F4B1B78DBB2181CFFF7FD
:401E0000B9FD1D4B1B78DBB2DBB25BB2002B08DA194B1B78DBB201229343DAB2164B1A701DE0144B1B78DBB2181CFFF79DFB031C1A1C104B1A700F4B1B78DBB2002B06D1D5
:401E40000C4B1B78DBB2181CFFF730FD07E00A4B1B78DBB201229343DAB2074B1A70FB1D1B78181C00F085F8BD4603B090BDC046140008401E0100201D01002080B500AFC5
:401E8000044B044A1268802109060A431A60BD4680BDC0464000024080B500AF034B034A1268520052081A60BD4680BD4000024080B584B000AF0A1CBB1D011C19807B1D87
:401EC0001A70084B1B681B0C1B04FB60BB1D1A88FB681343BB60034BBA681A60BD4604B080BDC0464000024080B500AF044B044A1268802109060A431A60BD4680BDC04675
:401F00000000024080B500AF034B034A1268520052081A60BD4680BD0000024080B584B000AF0A1CBB1D011C19807B1D1A70084B1B681B0C1B04FB60BB1D1A88FB68134326
:401F4000BB60034BBA681A60BD4604B080BDC04600000240000000000230800804D0C0460138FDD1C046C0467047EFF3108072B6704780F31088704780B500AF044B044A2E
:401F80001268802109060A431A60BD4680BDC04604010B4080B582B000AF78607B68022B02D9002000F052FA054B1A687B68DB000133DA4001231340181CBD4602B080BDEA
:401FC00010020B4080B584B000AF786039607B68022B02D9002000F039FA144B1B68002B01DBFFF7C9FF7B68181CFFF7D3FF031C002B18D10E4B1B687A68D2000321081C3C
:402000009040021CD2431340FB603A6803231A407B68DB00111C99400B1CFA681343FB60034BFA681A60BD4604B080BD04010B400C020B4090B583B000AF786039607B688D
:40204000002B02D07B68012B01D1012300E00023002B02D1002000F0F9F90E4B1B68002B01DBFFF789FF7B68181CFFF793FF031C002B0BD1084B084A11687A68D20002322F
:402080003868041C9440221C0A431A60BD4603B090BDC04604010B400C020B4080B582B000AF7860074B1B68002B01DBFFF764FF054B054A11687A680A431A60BD4602B03C
:4020C00080BDC04604010B4010020B4090B585B000AF78600020FFF75DFF041C0120FFF759FF031C1C430220FFF754FF031C2343FB60FB68002B13D10B4B1B68002B01DBD3
:40210000FFF73AFF094B1B68BB60BA68084B1340BB60BA687B681343BB60044BBA681A60BD4605B090BDC04604010B400C020B40F7F7FFFF80B584B000AF786039607B682E
:40214000002B02D07B68012B01D1012300E00023002B02D1002000F079F9104B1B68002B01DBFFF709FF822000F07AF90C4B1B68FB607B681B010B4A111C99400B1CDA431F
:40218000FB681340FB60064B7A68120139689140FA680A431A60BD4604B080BD04010B4008020B40FFFF000090B585B000AF78603C1C0B34FFF7D9FE031C2370204B1B6891
:4021C000002B01DBFFF7D8FE1E4B1A68C0231B021A40C0231B029A4214D10123FB60194B184A1168184A0A408021C9010A431A60144B144A1168144A0A40802109020A4393
:402200001A6001E00023FB60104B104A116878680F4A02400A431A60FB68012B06D1094B084A1268C02109020A431A603B1C0B331B78181CFFF79DFEBD4605B090BDC04624
:4022400004010B4000010B40FF3FFFFF10020B400404040080B582B000AF7860084B1B68002B01DBFFF788FE064B064A11687868054A02400A431A60BD4602B080BDC0468C
:4022800004010B4010020B400808080080B584B000AF021C3960FB1D1A7080239B05FB60FB1D1B780F2B02D9002000F0CFF8FB1D1B789B00FA68D3181B68BB60FB1D1B78D7
:4022C0009B00FA68D3183A681A60BB68181CBD4604B080BD80B584B000AF021C3960FB1D1A7080239B05FB60FB1D1B781F2B02D9002000F0ABF8FB1D1B7810339B00FA6812
:40230000D3181B68BB60FB1D1B7810339B00FA68D3183A681A60BB68181CBD4604B080BD90B587B000AF0A1CFB1D011C1970BB1D1A70BB1D1B78032B02D9002000F086F864
:40234000FB1D1B781F2B02D9002000F07FF8FB1D1A7803231340DB0006337B613C1C1334FFF703FE031C2370FB1D1B789B08DBB29B0014495B181B68FB607B690322111C51
:4023800099400B1CDA43FB681340FB60BB1D1A787B69111C99400B1CFA681343FB60FB1D1B789B08DBB29B00064A9B18FA681A603B1C13331B78181CFFF7DBFDBD4607B020
:4023C00090BDC04600E400E080B582B000AF021CFB1D1A70064BFA1D11781F220A400121081C9040021C1A60BD4602B080BDC04600E100E080B582B000AF021CFB1D1A7037
:40240000064BFA1D11781F220A400121081C9040021C1A60BD4602B080BDC04680E100E080B582B000AF021CFB1D1A70064BFA1D11781F220A400121081C9040021C1A6039
:40244000BD4602B080BDC04680E200E080B582B000AF021CFB1D1A7001BEBD4602B080BD80B582B000AF021CBB1D1A80BB1D1B88044A12785343181CFFF76EFDBD4602B0C2
:4024800080BDC046E000002080B500AF024B1B78DBB2181CBD4680BD62000F4080B584B000AF021CFB1D1A700E4B1B68DAB23B1C0F3302218A431A70FB1D1B785B00DAB27E
:4024C00002231340D9B23B1C0F333A1C0F3212780A431A70034B3A1C0F3212781A60BD4604B080BD00000440B0B582B000AF021C3960FB1D1A70FB1D1B787F2B32D93049AF
:40250000FB1D1B781A1C0F231340083B98082C4AFB1D1B781C1C0F232340083B9B0806339B00D3185B68FA1D1278141C03222240D200FF24251C95402A1CD2431A403B6841
:402540009C01FF231C40FB1D1B781D1C03232B40DB00251C9D402B1C1A43831D9B00CB185A6029E0174BFA1D127852B292081549F81D007840B28008C03080004158F81D29
:402580000078041C03202040C000FF24251C8540281CC043084039688C01FF210C40F91D09780D1C03212940C900251C8D40291C0143C0329200D150BD4602B0B0BDC04674
:4025C00000ED00E000E100E080B582B000AF78607B685A1E0C4B9A4201D9012310E00B4B7A68013A5A6001235B42181C0321FFF77BFF064B00229A60044B07221A600023AB
:40260000181CBD4602B080BDFFFFFF0010E000E080B582B000AF164B1B78002B1FD1144B01221A7000237B6011E0124B7A6892001149D150114B7A6892000F49D150104B97
:402640007A6892000021D1507B6801337B607B68032BEAD90B4B0F20191CFFF717FE96235B01181CFFF7B0FFBD4602B080BDC04640010020A40100200000F0FF800100207D
:40268000940100208926000080B500AF214B1B685A1C204B1A60204B00221A6034E01E4B1B681E4A99008A58511E1C4A9B009950194B1A68194B9200D358002B1FD1164BC2
:4026C0001A68154B1968164B8900CB58802149051943134B9200D1500F4B1B68104A99008A58511C0E4A9B0099500B4B1A680A4B19680C4B8900C958084B9200D150064B0D
:402700001B685A1C044B1A60034B1B68032BC6D9BD4680BD9001002044010020A4010020940100208001002080B584B000AF78600023BB600023FB601EE0134BFA689200CC
:40274000D2588023DB05134013D1104BFA6892007968D1500E4BFA6892007968D1500A4BFA689200C0210906D150FB680133BB6005E0FB680133FB60FB68032BDDD9BB6888
:40278000181CBD4604B080BD94010020A40100208001002080B584B000AF78600023FB607B68013B7B607A68032313407B600C4B7A689200D3581B041B0CFB60FB68002B13
:4027C00009D0074B7A689200D358DB0FD907044B7A689200D150FB68181CBD4604B080BD9401002080B582B000AF7860084B7A6892000021D150074B7A6892000649D150F4
:40280000064B7A6892000449D150BD4602B080BD94010020A40100200000F0FF8001002080B584B000AF021CFB1D1A700E4B1B68DAB23B1C0F3308218A431A70FB1D1B7865
:40284000DB00DAB208231340D9B23B1C0F333A1C0F3212780A431A70034B3A1C0F3212781A60BD4604B080BD0000044080B500AF044B1A6880231340DB09DBB2181CBD46E3
:4028800080BDC0460400044080B584B000AF021CFB1D1A700D4B1B68DAB23B1C0F3301218A431A70FB1D1A7801231340D9B23B1C0F333A1C0F3212780A431A70034B3A1C5B
:4028C0000F3212781A60BD4604B080BD00040440002934D00123002210B488422CD301242407A14204D2814202D209011B01F8E7E400A14204D2814202D249005B00F8E7FB
:40290000884201D3401A1A434C08A04202D3001B5C0822438C08A04202D3001B9C082243CC08A04202D3001BDC082243002803D01B0901D00909E3E7101C10BC7047002852
:4029400001D00020C04307B4024802A14018029003BDC046D90000000029F0D003B5FFF7B9FF0EBC4243891A1847C046002941D010B4041C4C40A44601230022002900D5B4
:402980004942002800D5404288422CD301242407A14204D2814202D209011B01F8E7E400A14204D2814202D249005B00F8E7884201D3401A1A434C08A04202D3001B5C0809
:4029C00022438C08A04202D3001B9C082243CC08A04202D3001BDC082243002803D01B0901D00909E3E7101C6446002C00D5404210BC7047002806D003DB0020C043400825
:402A000001E08020000607B4024802A14018029003BDC046190000000029EBD003B5FFF7A7FF0EBC4243891A1847C0467047C04670B50E4B0E4D0024E81A85101E1CAC4296
:402A400004D0A100725890470134F8E700F0F6FA0849094A0E1C541AA5100024AC4204D0A300F05880470134F8E770BD4830000048300000483000005030000000B582184B
:402A8000031C934202D019700133FAE700BD000000000000890900009109000099090000A1090000C1090000C9090000D9090000F5090000310A0000510A0000590A000008
:402AC000610A0000690A0000710A0000790A0000810A0000890A0000910A0000990A0000A10A0000A90A0000B10A0000B90A0000C10A0000C90A0000D10A0000D90A000066
:402B0000E10A0000F90A00004D0B0000C60C0000BE0C0000B60C0000BE0C0000A60C0000C60C0000AE0C0000BE0C0000960C0000C60C0000C60C0000C60C00009E0C00005D
:402B4000C60C0000A60C0000BE0C0000860C0000C60C0000C60C0000C60C0000C60C0000C60C0000C60C0000C60C00008E0C0000C60C0000C60C0000C60C0000960C000005
:402B8000C60C00009E0C0000BE0C0000760C0000C60C0000C60C0000C60C0000C60C0000C60C0000C60C0000C60C0000C60C0000C60C0000C60C0000C60C0000C60C000075
:402BC000C60C0000C60C0000C60C00007E0C0000C60C0000C60C0000C60C0000C60C0000C60C0000C60C0000C60C0000860C0000C60C0000C60C0000C60C00008E0C000075
:402C0000C60C0000C60C0000C60C0000660C0000C60C0000C60C0000C60C0000C60C0000C60C0000C60C0000C60C0000C60C0000C60C0000C60C0000C60C0000C60C0000D4
:402C4000C60C0000C60C0000C60C0000C60C0000C60C0000C60C0000C60C0000C60C0000C60C0000C60C0000C60C0000C60C0000C60C0000C60C0000C60C0000C60C000034
:402C8000C60C0000C60C0000C60C00006E0C0000C60C0000C60C0000C60C0000C60C0000C60C0000C60C0000C60C0000C60C0000C60C0000C60C0000C60C0000C60C00004C
:402CC000C60C0000C60C0000C60C0000760C0000C60C0000C60C0000C60C0000C60C0000C60C0000C60C0000C60C00007E0C0000C60C0000C60C0000C60C0000C60C00004C
:402D0000C60C00008E0C0000C60C00005E0C0000C60C0000C60C0000C60C0000C60C0000C60C0000C60C0000C60C0000C60C0000C60C0000C60C0000C60C0000C60C000013
:402D4000C60C0000C60C0000C60C0000C60C0000C60C0000C60C0000C60C0000C60C0000C60C0000C60C0000C60C0000C60C0000C60C0000C60C0000C60C0000C60C000033
:402D8000C60C0000C60C0000C60C0000C60C0000C60C0000C60C0000C60C0000C60C0000C60C0000C60C0000C60C0000C60C0000C60C0000C60C0000C60C0000C60C0000F3
:402DC000C60C0000C60C0000C60C0000C60C0000C60C0000C60C0000C60C0000C60C0000C60C0000C60C0000C60C0000C60C0000C60C0000C60C0000C60C0000C60C0000B3
:402E0000C60C0000C60C0000C60C00005E0C0000C60C0000C60C0000C60C0000C60C0000C60C0000C60C0000C60C0000C60C0000C60C0000C60C0000C60C0000C60C0000DA
:402E4000C60C0000C60C0000C60C0000C60C0000C60C0000C60C0000C60C0000C60C0000C60C0000C60C0000C60C0000C60C0000C60C0000C60C0000C60C0000C60C000032
:402E8000C60C0000C60C0000C60C00005E0C0000C60C0000C60C0000C60C0000C60C0000C60C0000C60C0000C60C0000C60C0000C60C0000C60C0000C60C0000C60C00005A
:402EC000C60C0000C60C0000C60C00005E0C0000C60C0000C60C0000C60C0000C60C0000C60C0000C60C0000C60C00005E0C000000300F40000400400F40000401310F4033
:402F000005320F4014330F4006400F4016410F4007420F4013430F4002600F40E60838803E4058045B045F011F805C505D015E0464026508678483808508860487408802D9
:402F400089018B048C50D6F0D8F0E070E4A4E60157805C108780D440D620E61001080202040805800A080B200C080D20801085208606880889808B108C048D089410C0F03B
:402F8000C2F0E050E410E6800A140C800D0175108780C20FDC0218101F80670269026A046C807210801081108301910292149D10A080A780C609D601DA02DC07020111011F
:402FC00004000000000000000000000000000000000000000001020303000000010000000000000078000000500000000000FFFF000000000000014004000140080001402E
:403000000C000140080004400801044008020440080304400000044000010440000204400003044032000000010000000A000000020000000000000001000000F8B5C04604
:40304000F8BC08BC9E467047C90300008D0D0000F8B5C046F8BC08BC9E467047A103000070300000C800002020000000D000000000000000C0F1FF0F0803044002020000E3
:40308000006CDC0280BB0000300000000000C05D0000000000000000000000000000000000000000000000000000000000000000000000000000000000000000000000003E
:4030C00000000000000000000000000000000000000000000000000000000000000000000000000000000000000000000000000000000000000000000000000000000000D0
:40310000000000000000000000000000000000000000000000000000000000000000000000000000000000000000000000000000000000000000000000000000000000008F
:40314000000000000000000000000000000000000000000000000000000000000000000000000000000000000000000000000000000000000000000000000000000000004F
:40318000000000000000000000000000000000000000000000000000000000000000000000000000000000000000000000000000000000000000000000000000000000000F
:0200000490303A
:0200000083A7D4
:0200000490402A
:200000000000000000000000000000000000000000000000000000000000000000000000E0
:0200000490501A
:0C000000000204C81193110104D7953AC6
:0200000490600A
:0100000001FE
:00000001FF